{"contracts/VaultFactory.sol":{"VaultFactory":{"abi":[{"inputs":[{"internalType":"address","name":"_usdcToken","type":"address"},{"internalType":"address","name":"_aavePool","type":"address"},{"internalType":"address","name":"_protocolTreasury","type":"address"},{"internalType":"address","name":"_implementation","type":"address"}],"stateMutability":"nonpayable","type":"constructor"},{"inputs":[],"name":"FailedDeployment","type":"error"},{"inputs":[{"internalType":"uint256","name":"balance","type":"uint256"},{"internalType":"uint256","name":"needed","type":"uint256"}],"name":"InsufficientBalance","type":"error"},{"inputs":[{"internalType":"address","name":"owner","type":"address"}],"name":"OwnableInvalidOwner","type":"error"},{"inputs":[{"internalType":"address","name":"account","type":"address"}],"name":"OwnableUnauthorizedAccount","type":"error"},{"inputs":[{"internalType":"address","name":"token","type":"address"}],"name":"SafeERC20FailedOperation","type":"error"},{"anonymous":false,"inputs":[{"indexed":true,"internalType":"address","name":"previousOwner","type":"address"},{"indexed":true,"internalType":"address","name":"newOwner","type":"address"}],"name":"OwnershipTransferred","type":"event"},{"anonymous":false,"inputs":[{"indexed":true,"internalType":"address","name":"user","type":"address"},{"indexed":false,"internalType":"address","name":"vault","type":"address"},{"indexed":false,"internalType":"uint256","name":"vaultId","type":"uint256"},{"indexed":false,"internalType":"string","name":"purpose","type":"string"}],"name":"VaultCreated","type":"event"},{"inputs":[],"name":"aavePool","outputs":[{"internalType":"address","name":"","type":"address"}],"stateMutability":"view","type":"function"},{"inputs":[{"internalType":"uint256","name":"","type":"uint256"}],"name":"allVaults","outputs":[{"internalType":"address","name":"","type":"address"}],"stateMutability":"view","type":"function"},{"inputs":[{"internalType":"string","name":"_purpose","type":"string"},{"internalType":"uint256","name":"_unlockTimestamp","type":"uint256"},{"internalType":"uint256","name":"_penaltyBps","type":"uint256"},{"internalType":"uint256","name":"_initialDeposit","type":"uint256"},{"internalType":"address","name":"_beneficiary","type":"address"}],"name":"createPersonalVault","outputs":[{"internalType":"address","name":"","type":"address"}],"stateMutability":"nonpayable","type":"function"},{"inputs":[{"internalType":"address","name":"_user","type":"address"}],"name":"getUserVaults","outputs":[{"internalType":"address[]","name":"","type":"address[]"}],"stateMutability":"view","type":"function"},{"inputs":[],"name":"implementation","outputs":[{"internalType":"address","name":"","type":"address"}],"stateMutability":"view","type":"function"},{"inputs":[{"internalType":"address","name":"","type":"address"}],"name":"isVault","outputs":[{"internalType":"bool","name":"","type":"bool"}],"stateMutability":"view","type":"function"},{"inputs":[],"name":"nextVaultId","outputs":[{"internalType":"uint256","name":"","type":"uint256"}],"stateMutability":"view","type":"function"},{"inputs":[],"name":"owner","outputs":[{"internalType":"address","name":"","type":"address"}],"stateMutability":"view","type":"function"},{"inputs":[],"name":"protocolTreasury","outputs":[{"internalType":"address","name":"","type":"address"}],"stateMutability":"view","type":"function"},{"inputs":[],"name":"renounceOwnership","outputs":[],"stateMutability":"nonpayable","type":"function"},{"inputs":[{"internalType":"address","name":"newOwner","type":"address"}],"name":"transferOwnership","outputs":[],"stateMutability":"nonpayable","type":"function"},{"inputs":[{"internalType":"address","name":"_vault","type":"address"}],"name":"triggerBeneficiaryClaim","outputs":[],"stateMutability":"nonpayable","type":"function"},{"inputs":[],"name":"usdcToken","outputs":[{"internalType":"address","name":"","type":"address"}],"stateMutability":"view","type":"function"},{"inputs":[{"internalType":"address","name":"","type":"address"},{"internalType":"uint256","name":"","type":"uint256"}],"name":"userVaults","outputs":[{"internalType":"address","name":"","type":"address"}],"stateMutability":"view","type":"function"},{"inputs":[{"internalType":"uint256","name":"","type":"uint256"}],"name":"vaultById","outputs":[{"internalType":"address","name":"","type":"address"}],"stateMutability":"view","type":"function"}],"evm":{"bytecode":{"linkReferences":{},"object":"60e0346101b557601f610d3238819003918201601f191683019291906001600160401b038411838510176101ba5781608092849260409687528339810103126101b55761004b816101d0565b610057602083016101d0565b61006e60606100678686016101d0565b94016101d0565b92331561019d57600080546001600160a01b0319808216339081178455885191966001600160a01b03969490938716907f8be0079c531659141344cd1fd0a4f28419497f9722a3daafe3b4186f6b6457e09080a360016002558482161561016c5750838616156101285760805260a0521690600154161760015560c05251610b4d90816101e582396080518181816105720152610984015260a051818181610220015261059b015260c05181818161040101526104e90152f35b865162461bcd60e51b815260206004820152601660248201527f496e76616c696420496d706c656d656e746174696f6e000000000000000000006044820152606490fd5b62461bcd60e51b815260206004820152600c60248201526b496e76616c6964205553444360a01b6044820152606490fd5b8451631e4fbdf760e01b815260006004820152602490fd5b600080fd5b634e487b7160e01b600052604160045260246000fd5b51906001600160a01b03821682036101b55756fe6080604081815260048036101561001557600080fd5b600092833560e01c90816311eac855146109705750806312ac17631461095157838163194f5d9f146108db5750806332f19a5c146108a957806349f411b7146104305780635c60da1b146103ec578063652b9b41146103b0578063715018a614610356578063803db96d1461032d5780638da5cb5b146103055780639094a91e146102ab5780639c841fef1461024f578063a03e4bc31461020b578063e7f3c69c1461015d5763f2fde38b146100ca57600080fd5b34610159576020366003190112610159576100e36109b3565b906100ec610a43565b6001600160a01b03918216928315610143575050600054826bffffffffffffffffffffffff60a01b821617600055167f8be0079c531659141344cd1fd0a4f28419497f9722a3daafe3b4186f6b6457e0600080a380f35b51631e4fbdf760e01b8152908101849052602490fd5b8280fd5b50503461020757602080600319360112610159576001600160a01b0392836101836109b3565b1681526005825282812091835190818185549182815201908195855282852090855b8181106101f157505050826101bb9103836109f3565b8451948186019282875251809352850193925b8281106101db5785850386f35b83518716855293810193928101926001016101ce565b82548a16845292840192600192830192016101a5565b5080fd5b505034610207578160031936011261020757517f00000000000000000000000000000000000000000000000000000000000000006001600160a01b03168152602090f35b5050346102075780600319360112610207576102696109b3565b6001600160a01b0390811683526005602052818320805460243594908510156102a8575060209361029991610a15565b92905490519260031b1c168152f35b80fd5b503461015957602036600319011261015957356006548110156101595760066000527ff652222313e28459528d920b65115c16c04f3efc82aaedc97be59f3f377c0d3f015490516001600160a01b03909116815260209150f35b505034610207578160031936011261020757905490516001600160a01b039091168152602090f35b50503461020757816003193601126102075760015490516001600160a01b039091168152602090f35b83346102a857806003193601126102a85761036f610a43565b600080546001600160a01b0319811682556001600160a01b03167f8be0079c531659141344cd1fd0a4f28419497f9722a3daafe3b4186f6b6457e08280a380f35b50346101595760203660031901126101595760209260ff918391906001600160a01b036103db6109b3565b168252855220541690519015158152f35b505034610207578160031936011261020757517f00000000000000000000000000000000000000000000000000000000000000006001600160a01b03168152602090f35b5090346101595760a03660031901126101595781359167ffffffffffffffff8084116108a557366023850112156108a55783820135948186116108925783519260209661048688601f19601f84011601866109f3565b808552602496368883830101116107f157818492898b930183890137860101526084356001600160a01b03818116979094606435939289900361088d5760025495600019871461087b57600187016002556e5af43d82803e903d91602b57fd5bf37f0000000000000000000000000000000000000000000000000000000000000000763d602d80600a3d3981f3363d3d373d3d3d363d7300000062ffffff8260881c1617885260781b178b52806037600988f016998a1561086b5781600154168b3b156108675790878693928d6105d2838f8f908f8c915198899788968795630e60092d60e41b87528d7f0000000000000000000000000000000000000000000000000000000000000000169e8f908801528d7f000000000000000000000000000000000000000000000000000000000000000016868801526101206044880152610124870190610a6f565b93356064860152604435608486015260a485015260c484015260e48301523361010483015203925af1801561085d57908891610845575b5088905260038c52898720906bffffffffffffffffffffffff60a01b918c838254161790558b8852858d528a8820600160ff1982541617905533885260058d528a8820908154680100000000000000009283821015610831576001820181558e9161067391610a15565b909283549160031b92831b921b19161790556006549081101561080957600181018060065581101561081d578b9060066000527ff652222313e28459528d920b65115c16c04f3efc82aaedc97be59f3f377c0d3f019182541617905584610726575b5050505050507f3df58ad1674826c10252882b795e1ed5dc6f88b11895bf9a30c5d494d940046f90835190858252868201526060848201528061071d33946060830190610a6f565b0390a251908152f35b88516323b872dd60e01b8c82015233848201523060448201526064808201879052815260a0810183811182821017610809578a526107649082610aaf565b885163a9059cbb60e01b8c8201528381018b9052604480820187905281529160808301908111838210176107f557895261079e9190610aaf565b873b156107f1579083918751938492635cdd100960e01b845283015281838a5af180156107e7576107d3575b808080806106d5565b6107dd82916109c9565b6102a857806107ca565b85513d84823e3d90fd5b8380fd5b83604186634e487b7160e01b600052526000fd5b84604187634e487b7160e01b600052526000fd5b84603287634e487b7160e01b600052526000fd5b8760418a634e487b7160e01b600052526000fd5b61084e906109c9565b610859578638610609565b8680fd5b8b513d8a823e3d90fd5b8780fd5b895163b06ebf3d60e01b81528590fd5b634e487b7160e01b8652601184528286fd5b600080fd5b634e487b7160e01b815260418352602490fd5b8480fd5b50346101595760203660031901126101595735825260036020908152918190205490516001600160a01b039091168152f35b8084843461094d57602036600319011261094d576108f76109b3565b6108ff610a43565b6001600160a01b0316803b1561094857839183518095819363178ea6ad60e01b83525af190811561093f5750610933575080f35b61093c906109c9565b80f35b513d84823e3d90fd5b505050fd5b5050fd5b5050346102075781600319360112610207576020906002549051908152f35b8490346102075781600319360112610207577f00000000000000000000000000000000000000000000000000000000000000006001600160a01b03168152602090f35b600435906001600160a01b038216820361088d57565b67ffffffffffffffff81116109dd57604052565b634e487b7160e01b600052604160045260246000fd5b90601f8019910116810190811067ffffffffffffffff8211176109dd57604052565b8054821015610a2d5760005260206000200190600090565b634e487b7160e01b600052603260045260246000fd5b6000546001600160a01b03163303610a5757565b60405163118cdaa760e01b8152336004820152602490fd5b919082519283825260005b848110610a9b575050826000602080949584010152601f8019910116010190565b602081830181015184830182015201610a7a565b906000602091828151910182855af115610b0b576000513d610b0257506001600160a01b0381163b155b610ae05750565b604051635274afe760e01b81526001600160a01b039091166004820152602490fd5b60011415610ad9565b6040513d6000823e3d90fdfea264697066735822122033ee109691a74d6711da4d381ab3b35f61c3408343eb5fca23fa542fd9d290b364736f6c63430008140033","opcodes":"PUSH1 0xE0 CALLVALUE PUSH2 0x1B5 JUMPI PUSH1 0x1F PUSH2 0xD32 CODESIZE DUP2 SWAP1 SUB SWAP2 DUP3 ADD PUSH1 0x1F NOT AND DUP4 ADD SWAP3 SWAP2 SWAP1 PUSH1 0x1 PUSH1 0x1 PUSH1 0x40 SHL SUB DUP5 GT DUP4 DUP6 LT OR PUSH2 0x1BA JUMPI DUP2 PUSH1 0x80 SWAP3 DUP5 SWAP3 PUSH1 0x40 SWAP7 DUP8 MSTORE DUP4 CODECOPY DUP2 ADD SUB SLT PUSH2 0x1B5 JUMPI PUSH2 0x4B DUP2 PUSH2 0x1D0 JUMP JUMPDEST PUSH2 0x57 PUSH1 0x20 DUP4 ADD PUSH2 0x1D0 JUMP JUMPDEST PUSH2 0x6E PUSH1 0x60 PUSH2 0x67 DUP7 DUP7 ADD PUSH2 0x1D0 JUMP JUMPDEST SWAP5 ADD PUSH2 0x1D0 JUMP JUMPDEST SWAP3 CALLER ISZERO PUSH2 0x19D JUMPI PUSH1 0x0 DUP1 SLOAD PUSH1 0x1 PUSH1 0x1 PUSH1 0xA0 SHL SUB NOT DUP1 DUP3 AND CALLER SWAP1 DUP2 OR DUP5 SSTORE DUP9 MLOAD SWAP2 SWAP7 PUSH1 0x1 PUSH1 0x1 PUSH1 0xA0 SHL SUB SWAP7 SWAP5 SWAP1 SWAP4 DUP8 AND SWAP1 PUSH32 0x8BE0079C531659141344CD1FD0A4F28419497F9722A3DAAFE3B4186F6B6457E0 SWAP1 DUP1 LOG3 PUSH1 0x1 PUSH1 0x2 SSTORE DUP5 DUP3 AND ISZERO PUSH2 0x16C JUMPI POP DUP4 DUP7 AND ISZERO PUSH2 0x128 JUMPI PUSH1 0x80 MSTORE PUSH1 0xA0 MSTORE AND SWAP1 PUSH1 0x1 SLOAD AND OR PUSH1 0x1 SSTORE PUSH1 0xC0 MSTORE MLOAD PUSH2 0xB4D SWAP1 DUP2 PUSH2 0x1E5 DUP3 CODECOPY PUSH1 0x80 MLOAD DUP2 DUP2 DUP2 PUSH2 0x572 ADD MSTORE PUSH2 0x984 ADD MSTORE PUSH1 0xA0 MLOAD DUP2 DUP2 DUP2 PUSH2 0x220 ADD MSTORE PUSH2 0x59B ADD MSTORE PUSH1 0xC0 MLOAD DUP2 DUP2 DUP2 PUSH2 0x401 ADD MSTORE PUSH2 0x4E9 ADD MSTORE RETURN JUMPDEST DUP7 MLOAD PUSH3 0x461BCD PUSH1 0xE5 SHL DUP2 MSTORE PUSH1 0x20 PUSH1 0x4 DUP3 ADD MSTORE PUSH1 0x16 PUSH1 0x24 DUP3 ADD MSTORE PUSH32 0x496E76616C696420496D706C656D656E746174696F6E00000000000000000000 PUSH1 0x44 DUP3 ADD MSTORE PUSH1 0x64 SWAP1 REVERT JUMPDEST PUSH3 0x461BCD PUSH1 0xE5 SHL DUP2 MSTORE PUSH1 0x20 PUSH1 0x4 DUP3 ADD MSTORE PUSH1 0xC PUSH1 0x24 DUP3 ADD MSTORE PUSH12 0x496E76616C69642055534443 PUSH1 0xA0 SHL PUSH1 0x44 DUP3 ADD MSTORE PUSH1 0x64 SWAP1 REVERT JUMPDEST DUP5 MLOAD PUSH4 0x1E4FBDF7 PUSH1 0xE0 SHL DUP2 MSTORE PUSH1 0x0 PUSH1 0x4 DUP3 ADD MSTORE PUSH1 0x24 SWAP1 REVERT JUMPDEST PUSH1 0x0 DUP1 REVERT JUMPDEST PUSH4 0x4E487B71 PUSH1 0xE0 SHL PUSH1 0x0 MSTORE PUSH1 0x41 PUSH1 0x4 MSTORE PUSH1 0x24 PUSH1 0x0 REVERT JUMPDEST MLOAD SWAP1 PUSH1 0x1 PUSH1 0x1 PUSH1 0xA0 SHL SUB DUP3 AND DUP3 SUB PUSH2 0x1B5 JUMPI JUMP INVALID PUSH1 0x80 PUSH1 0x40 DUP2 DUP2 MSTORE PUSH1 0x4 DUP1 CALLDATASIZE LT ISZERO PUSH2 0x15 JUMPI PUSH1 0x0 DUP1 REVERT JUMPDEST PUSH1 0x0 SWAP3 DUP4 CALLDATALOAD PUSH1 0xE0 SHR SWAP1 DUP2 PUSH4 0x11EAC855 EQ PUSH2 0x970 JUMPI POP DUP1 PUSH4 0x12AC1763 EQ PUSH2 0x951 JUMPI DUP4 DUP2 PUSH4 0x194F5D9F EQ PUSH2 0x8DB JUMPI POP DUP1 PUSH4 0x32F19A5C EQ PUSH2 0x8A9 JUMPI DUP1 PUSH4 0x49F411B7 EQ PUSH2 0x430 JUMPI DUP1 PUSH4 0x5C60DA1B EQ PUSH2 0x3EC JUMPI DUP1 PUSH4 0x652B9B41 EQ PUSH2 0x3B0 JUMPI DUP1 PUSH4 0x715018A6 EQ PUSH2 0x356 JUMPI DUP1 PUSH4 0x803DB96D EQ PUSH2 0x32D JUMPI DUP1 PUSH4 0x8DA5CB5B EQ PUSH2 0x305 JUMPI DUP1 PUSH4 0x9094A91E EQ PUSH2 0x2AB JUMPI DUP1 PUSH4 0x9C841FEF EQ PUSH2 0x24F JUMPI DUP1 PUSH4 0xA03E4BC3 EQ PUSH2 0x20B JUMPI DUP1 PUSH4 0xE7F3C69C EQ PUSH2 0x15D JUMPI PUSH4 0xF2FDE38B EQ PUSH2 0xCA JUMPI PUSH1 0x0 DUP1 REVERT JUMPDEST CALLVALUE PUSH2 0x159 JUMPI PUSH1 0x20 CALLDATASIZE PUSH1 0x3 NOT ADD SLT PUSH2 0x159 JUMPI PUSH2 0xE3 PUSH2 0x9B3 JUMP JUMPDEST SWAP1 PUSH2 0xEC PUSH2 0xA43 JUMP JUMPDEST PUSH1 0x1 PUSH1 0x1 PUSH1 0xA0 SHL SUB SWAP2 DUP3 AND SWAP3 DUP4 ISZERO PUSH2 0x143 JUMPI POP POP PUSH1 0x0 SLOAD DUP3 PUSH12 0xFFFFFFFFFFFFFFFFFFFFFFFF PUSH1 0xA0 SHL DUP3 AND OR PUSH1 0x0 SSTORE AND PUSH32 0x8BE0079C531659141344CD1FD0A4F28419497F9722A3DAAFE3B4186F6B6457E0 PUSH1 0x0 DUP1 LOG3 DUP1 RETURN JUMPDEST MLOAD PUSH4 0x1E4FBDF7 PUSH1 0xE0 SHL DUP2 MSTORE SWAP1 DUP2 ADD DUP5 SWAP1 MSTORE PUSH1 0x24 SWAP1 REVERT JUMPDEST DUP3 DUP1 REVERT JUMPDEST POP POP CALLVALUE PUSH2 0x207 JUMPI PUSH1 0x20 DUP1 PUSH1 0x3 NOT CALLDATASIZE ADD SLT PUSH2 0x159 JUMPI PUSH1 0x1 PUSH1 0x1 PUSH1 0xA0 SHL SUB SWAP3 DUP4 PUSH2 0x183 PUSH2 0x9B3 JUMP JUMPDEST AND DUP2 MSTORE PUSH1 0x5 DUP3 MSTORE DUP3 DUP2 KECCAK256 SWAP2 DUP4 MLOAD SWAP1 DUP2 DUP2 DUP6 SLOAD SWAP2 DUP3 DUP2 MSTORE ADD SWAP1 DUP2 SWAP6 DUP6 MSTORE DUP3 DUP6 KECCAK256 SWAP1 DUP6 JUMPDEST DUP2 DUP2 LT PUSH2 0x1F1 JUMPI POP POP POP DUP3 PUSH2 0x1BB SWAP2 SUB DUP4 PUSH2 0x9F3 JUMP JUMPDEST DUP5 MLOAD SWAP5 DUP2 DUP7 ADD SWAP3 DUP3 DUP8 MSTORE MLOAD DUP1 SWAP4 MSTORE DUP6 ADD SWAP4 SWAP3 JUMPDEST DUP3 DUP2 LT PUSH2 0x1DB JUMPI DUP6 DUP6 SUB DUP7 RETURN JUMPDEST DUP4 MLOAD DUP8 AND DUP6 MSTORE SWAP4 DUP2 ADD SWAP4 SWAP3 DUP2 ADD SWAP3 PUSH1 0x1 ADD PUSH2 0x1CE JUMP JUMPDEST DUP3 SLOAD DUP11 AND DUP5 MSTORE SWAP3 DUP5 ADD SWAP3 PUSH1 0x1 SWAP3 DUP4 ADD SWAP3 ADD PUSH2 0x1A5 JUMP JUMPDEST POP DUP1 REVERT JUMPDEST POP POP CALLVALUE PUSH2 0x207 JUMPI DUP2 PUSH1 0x3 NOT CALLDATASIZE ADD SLT PUSH2 0x207 JUMPI MLOAD PUSH32 0x0 PUSH1 0x1 PUSH1 0x1 PUSH1 0xA0 SHL SUB AND DUP2 MSTORE PUSH1 0x20 SWAP1 RETURN JUMPDEST POP POP CALLVALUE PUSH2 0x207 JUMPI DUP1 PUSH1 0x3 NOT CALLDATASIZE ADD SLT PUSH2 0x207 JUMPI PUSH2 0x269 PUSH2 0x9B3 JUMP JUMPDEST PUSH1 0x1 PUSH1 0x1 PUSH1 0xA0 SHL SUB SWAP1 DUP2 AND DUP4 MSTORE PUSH1 0x5 PUSH1 0x20 MSTORE DUP2 DUP4 KECCAK256 DUP1 SLOAD PUSH1 0x24 CALLDATALOAD SWAP5 SWAP1 DUP6 LT ISZERO PUSH2 0x2A8 JUMPI POP PUSH1 0x20 SWAP4 PUSH2 0x299 SWAP2 PUSH2 0xA15 JUMP JUMPDEST SWAP3 SWAP1 SLOAD SWAP1 MLOAD SWAP3 PUSH1 0x3 SHL SHR AND DUP2 MSTORE RETURN JUMPDEST DUP1 REVERT JUMPDEST POP CALLVALUE PUSH2 0x159 JUMPI PUSH1 0x20 CALLDATASIZE PUSH1 0x3 NOT ADD SLT PUSH2 0x159 JUMPI CALLDATALOAD PUSH1 0x6 SLOAD DUP2 LT ISZERO PUSH2 0x159 JUMPI PUSH1 0x6 PUSH1 0x0 MSTORE PUSH32 0xF652222313E28459528D920B65115C16C04F3EFC82AAEDC97BE59F3F377C0D3F ADD SLOAD SWAP1 MLOAD PUSH1 0x1 PUSH1 0x1 PUSH1 0xA0 SHL SUB SWAP1 SWAP2 AND DUP2 MSTORE PUSH1 0x20 SWAP2 POP RETURN JUMPDEST POP POP CALLVALUE PUSH2 0x207 JUMPI DUP2 PUSH1 0x3 NOT CALLDATASIZE ADD SLT PUSH2 0x207 JUMPI SWAP1 SLOAD SWAP1 MLOAD PUSH1 0x1 PUSH1 0x1 PUSH1 0xA0 SHL SUB SWAP1 SWAP2 AND DUP2 MSTORE PUSH1 0x20 SWAP1 RETURN JUMPDEST POP POP CALLVALUE PUSH2 0x207 JUMPI DUP2 PUSH1 0x3 NOT CALLDATASIZE ADD SLT PUSH2 0x207 JUMPI PUSH1 0x1 SLOAD SWAP1 MLOAD PUSH1 0x1 PUSH1 0x1 PUSH1 0xA0 SHL SUB SWAP1 SWAP2 AND DUP2 MSTORE PUSH1 0x20 SWAP1 RETURN JUMPDEST DUP4 CALLVALUE PUSH2 0x2A8 JUMPI DUP1 PUSH1 0x3 NOT CALLDATASIZE ADD SLT PUSH2 0x2A8 JUMPI PUSH2 0x36F PUSH2 0xA43 JUMP JUMPDEST PUSH1 0x0 DUP1 SLOAD PUSH1 0x1 PUSH1 0x1 PUSH1 0xA0 SHL SUB NOT DUP2 AND DUP3 SSTORE PUSH1 0x1 PUSH1 0x1 PUSH1 0xA0 SHL SUB AND PUSH32 0x8BE0079C531659141344CD1FD0A4F28419497F9722A3DAAFE3B4186F6B6457E0 DUP3 DUP1 LOG3 DUP1 RETURN JUMPDEST POP CALLVALUE PUSH2 0x159 JUMPI PUSH1 0x20 CALLDATASIZE PUSH1 0x3 NOT ADD SLT PUSH2 0x159 JUMPI PUSH1 0x20 SWAP3 PUSH1 0xFF SWAP2 DUP4 SWAP2 SWAP1 PUSH1 0x1 PUSH1 0x1 PUSH1 0xA0 SHL SUB PUSH2 0x3DB PUSH2 0x9B3 JUMP JUMPDEST AND DUP3 MSTORE DUP6 MSTORE KECCAK256 SLOAD AND SWAP1 MLOAD SWAP1 ISZERO ISZERO DUP2 MSTORE RETURN JUMPDEST POP POP CALLVALUE PUSH2 0x207 JUMPI DUP2 PUSH1 0x3 NOT CALLDATASIZE ADD SLT PUSH2 0x207 JUMPI MLOAD PUSH32 0x0 PUSH1 0x1 PUSH1 0x1 PUSH1 0xA0 SHL SUB AND DUP2 MSTORE PUSH1 0x20 SWAP1 RETURN JUMPDEST POP SWAP1 CALLVALUE PUSH2 0x159 JUMPI PUSH1 0xA0 CALLDATASIZE PUSH1 0x3 NOT ADD SLT PUSH2 0x159 JUMPI DUP2 CALLDATALOAD SWAP2 PUSH8 0xFFFFFFFFFFFFFFFF DUP1 DUP5 GT PUSH2 0x8A5 JUMPI CALLDATASIZE PUSH1 0x23 DUP6 ADD SLT ISZERO PUSH2 0x8A5 JUMPI DUP4 DUP3 ADD CALLDATALOAD SWAP5 DUP2 DUP7 GT PUSH2 0x892 JUMPI DUP4 MLOAD SWAP3 PUSH1 0x20 SWAP7 PUSH2 0x486 DUP9 PUSH1 0x1F NOT PUSH1 0x1F DUP5 ADD AND ADD DUP7 PUSH2 0x9F3 JUMP JUMPDEST DUP1 DUP6 MSTORE PUSH1 0x24 SWAP7 CALLDATASIZE DUP9 DUP4 DUP4 ADD ADD GT PUSH2 0x7F1 JUMPI DUP2 DUP5 SWAP3 DUP10 DUP12 SWAP4 ADD DUP4 DUP10 ADD CALLDATACOPY DUP7 ADD ADD MSTORE PUSH1 0x84 CALLDATALOAD PUSH1 0x1 PUSH1 0x1 PUSH1 0xA0 SHL SUB DUP2 DUP2 AND SWAP8 SWAP1 SWAP5 PUSH1 0x64 CALLDATALOAD SWAP4 SWAP3 DUP10 SWAP1 SUB PUSH2 0x88D JUMPI PUSH1 0x2 SLOAD SWAP6 PUSH1 0x0 NOT DUP8 EQ PUSH2 0x87B JUMPI PUSH1 0x1 DUP8 ADD PUSH1 0x2 SSTORE PUSH15 0x5AF43D82803E903D91602B57FD5BF3 PUSH32 0x0 PUSH23 0x3D602D80600A3D3981F3363D3D373D3D3D363D73000000 PUSH3 0xFFFFFF DUP3 PUSH1 0x88 SHR AND OR DUP9 MSTORE PUSH1 0x78 SHL OR DUP12 MSTORE DUP1 PUSH1 0x37 PUSH1 0x9 DUP9 CREATE AND SWAP10 DUP11 ISZERO PUSH2 0x86B JUMPI DUP2 PUSH1 0x1 SLOAD AND DUP12 EXTCODESIZE ISZERO PUSH2 0x867 JUMPI SWAP1 DUP8 DUP7 SWAP4 SWAP3 DUP14 PUSH2 0x5D2 DUP4 DUP16 DUP16 SWAP1 DUP16 DUP13 SWAP2 MLOAD SWAP9 DUP10 SWAP8 DUP9 SWAP7 DUP8 SWAP6 PUSH4 0xE60092D PUSH1 0xE4 SHL DUP8 MSTORE DUP14 PUSH32 0x0 AND SWAP15 DUP16 SWAP1 DUP9 ADD MSTORE DUP14 PUSH32 0x0 AND DUP7 DUP9 ADD MSTORE PUSH2 0x120 PUSH1 0x44 DUP9 ADD MSTORE PUSH2 0x124 DUP8 ADD SWAP1 PUSH2 0xA6F JUMP JUMPDEST SWAP4 CALLDATALOAD PUSH1 0x64 DUP7 ADD MSTORE PUSH1 0x44 CALLDATALOAD PUSH1 0x84 DUP7 ADD MSTORE PUSH1 0xA4 DUP6 ADD MSTORE PUSH1 0xC4 DUP5 ADD MSTORE PUSH1 0xE4 DUP4 ADD MSTORE CALLER PUSH2 0x104 DUP4 ADD MSTORE SUB SWAP3 GAS CALL DUP1 ISZERO PUSH2 0x85D JUMPI SWAP1 DUP9 SWAP2 PUSH2 0x845 JUMPI JUMPDEST POP DUP9 SWAP1 MSTORE PUSH1 0x3 DUP13 MSTORE DUP10 DUP8 KECCAK256 SWAP1 PUSH12 0xFFFFFFFFFFFFFFFFFFFFFFFF PUSH1 0xA0 SHL SWAP2 DUP13 DUP4 DUP3 SLOAD AND OR SWAP1 SSTORE DUP12 DUP9 MSTORE DUP6 DUP14 MSTORE DUP11 DUP9 KECCAK256 PUSH1 0x1 PUSH1 0xFF NOT DUP3 SLOAD AND OR SWAP1 SSTORE CALLER DUP9 MSTORE PUSH1 0x5 DUP14 MSTORE DUP11 DUP9 KECCAK256 SWAP1 DUP2 SLOAD PUSH9 0x10000000000000000 SWAP3 DUP4 DUP3 LT ISZERO PUSH2 0x831 JUMPI PUSH1 0x1 DUP3 ADD DUP2 SSTORE DUP15 SWAP2 PUSH2 0x673 SWAP2 PUSH2 0xA15 JUMP JUMPDEST SWAP1 SWAP3 DUP4 SLOAD SWAP2 PUSH1 0x3 SHL SWAP3 DUP4 SHL SWAP3 SHL NOT AND OR SWAP1 SSTORE PUSH1 0x6 SLOAD SWAP1 DUP2 LT ISZERO PUSH2 0x809 JUMPI PUSH1 0x1 DUP2 ADD DUP1 PUSH1 0x6 SSTORE DUP2 LT ISZERO PUSH2 0x81D JUMPI DUP12 SWAP1 PUSH1 0x6 PUSH1 0x0 MSTORE PUSH32 0xF652222313E28459528D920B65115C16C04F3EFC82AAEDC97BE59F3F377C0D3F ADD SWAP2 DUP3 SLOAD AND OR SWAP1 SSTORE DUP5 PUSH2 0x726 JUMPI JUMPDEST POP POP POP POP POP POP PUSH32 0x3DF58AD1674826C10252882B795E1ED5DC6F88B11895BF9A30C5D494D940046F SWAP1 DUP4 MLOAD SWAP1 DUP6 DUP3 MSTORE DUP7 DUP3 ADD MSTORE PUSH1 0x60 DUP5 DUP3 ADD MSTORE DUP1 PUSH2 0x71D CALLER SWAP5 PUSH1 0x60 DUP4 ADD SWAP1 PUSH2 0xA6F JUMP JUMPDEST SUB SWAP1 LOG2 MLOAD SWAP1 DUP2 MSTORE RETURN JUMPDEST DUP9 MLOAD PUSH4 0x23B872DD PUSH1 0xE0 SHL DUP13 DUP3 ADD MSTORE CALLER DUP5 DUP3 ADD MSTORE ADDRESS PUSH1 0x44 DUP3 ADD MSTORE PUSH1 0x64 DUP1 DUP3 ADD DUP8 SWAP1 MSTORE DUP2 MSTORE PUSH1 0xA0 DUP2 ADD DUP4 DUP2 GT DUP3 DUP3 LT OR PUSH2 0x809 JUMPI DUP11 MSTORE PUSH2 0x764 SWAP1 DUP3 PUSH2 0xAAF JUMP JUMPDEST DUP9 MLOAD PUSH4 0xA9059CBB PUSH1 0xE0 SHL DUP13 DUP3 ADD MSTORE DUP4 DUP2 ADD DUP12 SWAP1 MSTORE PUSH1 0x44 DUP1 DUP3 ADD DUP8 SWAP1 MSTORE DUP2 MSTORE SWAP2 PUSH1 0x80 DUP4 ADD SWAP1 DUP2 GT DUP4 DUP3 LT OR PUSH2 0x7F5 JUMPI DUP10 MSTORE PUSH2 0x79E SWAP2 SWAP1 PUSH2 0xAAF JUMP JUMPDEST DUP8 EXTCODESIZE ISZERO PUSH2 0x7F1 JUMPI SWAP1 DUP4 SWAP2 DUP8 MLOAD SWAP4 DUP5 SWAP3 PUSH4 0x5CDD1009 PUSH1 0xE0 SHL DUP5 MSTORE DUP4 ADD MSTORE DUP2 DUP4 DUP11 GAS CALL DUP1 ISZERO PUSH2 0x7E7 JUMPI PUSH2 0x7D3 JUMPI JUMPDEST DUP1 DUP1 DUP1 DUP1 PUSH2 0x6D5 JUMP JUMPDEST PUSH2 0x7DD DUP3 SWAP2 PUSH2 0x9C9 JUMP JUMPDEST PUSH2 0x2A8 JUMPI DUP1 PUSH2 0x7CA JUMP JUMPDEST DUP6 MLOAD RETURNDATASIZE DUP5 DUP3 RETURNDATACOPY RETURNDATASIZE SWAP1 REVERT JUMPDEST DUP4 DUP1 REVERT JUMPDEST DUP4 PUSH1 0x41 DUP7 PUSH4 0x4E487B71 PUSH1 0xE0 SHL PUSH1 0x0 MSTORE MSTORE PUSH1 0x0 REVERT JUMPDEST DUP5 PUSH1 0x41 DUP8 PUSH4 0x4E487B71 PUSH1 0xE0 SHL PUSH1 0x0 MSTORE MSTORE PUSH1 0x0 REVERT JUMPDEST DUP5 PUSH1 0x32 DUP8 PUSH4 0x4E487B71 PUSH1 0xE0 SHL PUSH1 0x0 MSTORE MSTORE PUSH1 0x0 REVERT JUMPDEST DUP8 PUSH1 0x41 DUP11 PUSH4 0x4E487B71 PUSH1 0xE0 SHL PUSH1 0x0 MSTORE MSTORE PUSH1 0x0 REVERT JUMPDEST PUSH2 0x84E SWAP1 PUSH2 0x9C9 JUMP JUMPDEST PUSH2 0x859 JUMPI DUP7 CODESIZE PUSH2 0x609 JUMP JUMPDEST DUP7 DUP1 REVERT JUMPDEST DUP12 MLOAD RETURNDATASIZE DUP11 DUP3 RETURNDATACOPY RETURNDATASIZE SWAP1 REVERT JUMPDEST DUP8 DUP1 REVERT JUMPDEST DUP10 MLOAD PUSH4 0xB06EBF3D PUSH1 0xE0 SHL DUP2 MSTORE DUP6 SWAP1 REVERT JUMPDEST PUSH4 0x4E487B71 PUSH1 0xE0 SHL DUP7 MSTORE PUSH1 0x11 DUP5 MSTORE DUP3 DUP7 REVERT JUMPDEST PUSH1 0x0 DUP1 REVERT JUMPDEST PUSH4 0x4E487B71 PUSH1 0xE0 SHL DUP2 MSTORE PUSH1 0x41 DUP4 MSTORE PUSH1 0x24 SWAP1 REVERT JUMPDEST DUP5 DUP1 REVERT JUMPDEST POP CALLVALUE PUSH2 0x159 JUMPI PUSH1 0x20 CALLDATASIZE PUSH1 0x3 NOT ADD SLT PUSH2 0x159 JUMPI CALLDATALOAD DUP3 MSTORE PUSH1 0x3 PUSH1 0x20 SWAP1 DUP2 MSTORE SWAP2 DUP2 SWAP1 KECCAK256 SLOAD SWAP1 MLOAD PUSH1 0x1 PUSH1 0x1 PUSH1 0xA0 SHL SUB SWAP1 SWAP2 AND DUP2 MSTORE RETURN JUMPDEST DUP1 DUP5 DUP5 CALLVALUE PUSH2 0x94D JUMPI PUSH1 0x20 CALLDATASIZE PUSH1 0x3 NOT ADD SLT PUSH2 0x94D JUMPI PUSH2 0x8F7 PUSH2 0x9B3 JUMP JUMPDEST PUSH2 0x8FF PUSH2 0xA43 JUMP JUMPDEST PUSH1 0x1 PUSH1 0x1 PUSH1 0xA0 SHL SUB AND DUP1 EXTCODESIZE ISZERO PUSH2 0x948 JUMPI DUP4 SWAP2 DUP4 MLOAD DUP1 SWAP6 DUP2 SWAP4 PUSH4 0x178EA6AD PUSH1 0xE0 SHL DUP4 MSTORE GAS CALL SWAP1 DUP2 ISZERO PUSH2 0x93F JUMPI POP PUSH2 0x933 JUMPI POP DUP1 RETURN JUMPDEST PUSH2 0x93C SWAP1 PUSH2 0x9C9 JUMP JUMPDEST DUP1 RETURN JUMPDEST MLOAD RETURNDATASIZE DUP5 DUP3 RETURNDATACOPY RETURNDATASIZE SWAP1 REVERT JUMPDEST POP POP POP REVERT JUMPDEST POP POP REVERT JUMPDEST POP POP CALLVALUE PUSH2 0x207 JUMPI DUP2 PUSH1 0x3 NOT CALLDATASIZE ADD SLT PUSH2 0x207 JUMPI PUSH1 0x20 SWAP1 PUSH1 0x2 SLOAD SWAP1 MLOAD SWAP1 DUP2 MSTORE RETURN JUMPDEST DUP5 SWAP1 CALLVALUE PUSH2 0x207 JUMPI DUP2 PUSH1 0x3 NOT CALLDATASIZE ADD SLT PUSH2 0x207 JUMPI PUSH32 0x0 PUSH1 0x1 PUSH1 0x1 PUSH1 0xA0 SHL SUB AND DUP2 MSTORE PUSH1 0x20 SWAP1 RETURN JUMPDEST PUSH1 0x4 CALLDATALOAD SWAP1 PUSH1 0x1 PUSH1 0x1 PUSH1 0xA0 SHL SUB DUP3 AND DUP3 SUB PUSH2 0x88D JUMPI JUMP JUMPDEST PUSH8 0xFFFFFFFFFFFFFFFF DUP2 GT PUSH2 0x9DD JUMPI PUSH1 0x40 MSTORE JUMP JUMPDEST PUSH4 0x4E487B71 PUSH1 0xE0 SHL PUSH1 0x0 MSTORE PUSH1 0x41 PUSH1 0x4 MSTORE PUSH1 0x24 PUSH1 0x0 REVERT JUMPDEST SWAP1 PUSH1 0x1F DUP1 NOT SWAP2 ADD AND DUP2 ADD SWAP1 DUP2 LT PUSH8 0xFFFFFFFFFFFFFFFF DUP3 GT OR PUSH2 0x9DD JUMPI PUSH1 0x40 MSTORE JUMP JUMPDEST DUP1 SLOAD DUP3 LT ISZERO PUSH2 0xA2D JUMPI PUSH1 0x0 MSTORE PUSH1 0x20 PUSH1 0x0 KECCAK256 ADD SWAP1 PUSH1 0x0 SWAP1 JUMP JUMPDEST PUSH4 0x4E487B71 PUSH1 0xE0 SHL PUSH1 0x0 MSTORE PUSH1 0x32 PUSH1 0x4 MSTORE PUSH1 0x24 PUSH1 0x0 REVERT JUMPDEST PUSH1 0x0 SLOAD PUSH1 0x1 PUSH1 0x1 PUSH1 0xA0 SHL SUB AND CALLER SUB PUSH2 0xA57 JUMPI JUMP JUMPDEST PUSH1 0x40 MLOAD PUSH4 0x118CDAA7 PUSH1 0xE0 SHL DUP2 MSTORE CALLER PUSH1 0x4 DUP3 ADD MSTORE PUSH1 0x24 SWAP1 REVERT JUMPDEST SWAP2 SWAP1 DUP3 MLOAD SWAP3 DUP4 DUP3 MSTORE PUSH1 0x0 JUMPDEST DUP5 DUP2 LT PUSH2 0xA9B JUMPI POP POP DUP3 PUSH1 0x0 PUSH1 0x20 DUP1 SWAP5 SWAP6 DUP5 ADD ADD MSTORE PUSH1 0x1F DUP1 NOT SWAP2 ADD AND ADD ADD SWAP1 JUMP JUMPDEST PUSH1 0x20 DUP2 DUP4 ADD DUP2 ADD MLOAD DUP5 DUP4 ADD DUP3 ADD MSTORE ADD PUSH2 0xA7A JUMP JUMPDEST SWAP1 PUSH1 0x0 PUSH1 0x20 SWAP2 DUP3 DUP2 MLOAD SWAP2 ADD DUP3 DUP6 GAS CALL ISZERO PUSH2 0xB0B JUMPI PUSH1 0x0 MLOAD RETURNDATASIZE PUSH2 0xB02 JUMPI POP PUSH1 0x1 PUSH1 0x1 PUSH1 0xA0 SHL SUB DUP2 AND EXTCODESIZE ISZERO JUMPDEST PUSH2 0xAE0 JUMPI POP JUMP JUMPDEST PUSH1 0x40 MLOAD PUSH4 0x5274AFE7 PUSH1 0xE0 SHL DUP2 MSTORE PUSH1 0x1 PUSH1 0x1 PUSH1 0xA0 SHL SUB SWAP1 SWAP2 AND PUSH1 0x4 DUP3 ADD MSTORE PUSH1 0x24 SWAP1 REVERT JUMPDEST PUSH1 0x1 EQ ISZERO PUSH2 0xAD9 JUMP JUMPDEST PUSH1 0x40 MLOAD RETURNDATASIZE PUSH1 0x0 DUP3 RETURNDATACOPY RETURNDATASIZE SWAP1 REVERT INVALID LOG2 PUSH5 0x6970667358 0x22 SLT KECCAK256 CALLER 0xEE LT SWAP7 SWAP2 0xA7 0x4D PUSH8 0x11DA4D381AB3B35F PUSH2 0xC340 DUP4 NUMBER 0xEB PUSH0 0xCA 0x23 STATICCALL SLOAD 0x2F 0xD9 0xD2 SWAP1 0xB3 PUSH5 0x736F6C6343 STOP ADDMOD EQ STOP CALLER "},"methodIdentifiers":{"aavePool()":"a03e4bc3","allVaults(uint256)":"9094a91e","createPersonalVault(string,uint256,uint256,uint256,address)":"49f411b7","getUserVaults(address)":"e7f3c69c","implementation()":"5c60da1b","isVault(address)":"652b9b41","nextVaultId()":"12ac1763","owner()":"8da5cb5b","protocolTreasury()":"803db96d","renounceOwnership()":"715018a6","transferOwnership(address)":"f2fde38b","triggerBeneficiaryClaim(address)":"194f5d9f","usdcToken()":"11eac855","userVaults(address,uint256)":"9c841fef","vaultById(uint256)":"32f19a5c"}}}}}