{"contracts/PersonalVault.sol":{"PersonalVault":{"abi":[{"inputs":[],"stateMutability":"nonpayable","type":"constructor"},{"inputs":[],"name":"InvalidInitialization","type":"error"},{"inputs":[],"name":"NotInitializing","type":"error"},{"inputs":[],"name":"ReentrancyGuardReentrantCall","type":"error"},{"inputs":[{"internalType":"address","name":"token","type":"address"}],"name":"SafeERC20FailedOperation","type":"error"},{"anonymous":false,"inputs":[{"indexed":true,"internalType":"address","name":"beneficiary","type":"address"},{"indexed":false,"internalType":"uint256","name":"amount","type":"uint256"}],"name":"BeneficiaryClaimed","type":"event"},{"anonymous":false,"inputs":[{"indexed":true,"internalType":"address","name":"user","type":"address"},{"indexed":false,"internalType":"uint256","name":"amount","type":"uint256"},{"indexed":false,"internalType":"uint256","name":"timestamp","type":"uint256"}],"name":"Deposited","type":"event"},{"anonymous":false,"inputs":[{"indexed":true,"internalType":"address","name":"user","type":"address"},{"indexed":false,"internalType":"uint256","name":"amountWithdraw","type":"uint256"},{"indexed":false,"internalType":"uint256","name":"penaltyPaid","type":"uint256"}],"name":"EarlyWithdrawal","type":"event"},{"anonymous":false,"inputs":[{"indexed":true,"internalType":"address","name":"user","type":"address"},{"indexed":false,"internalType":"uint256","name":"amount","type":"uint256"}],"name":"FullWithdrawal","type":"event"},{"anonymous":false,"inputs":[{"indexed":false,"internalType":"uint64","name":"version","type":"uint64"}],"name":"Initialized","type":"event"},{"anonymous":false,"inputs":[{"indexed":true,"internalType":"address","name":"user","type":"address"},{"indexed":false,"internalType":"uint256","name":"amount","type":"uint256"},{"indexed":false,"internalType":"uint256","name":"timestamp","type":"uint256"},{"indexed":false,"internalType":"string","name":"typeOfWithdrawal","type":"string"}],"name":"Withdrawn","type":"event"},{"inputs":[],"name":"GRACE_PERIOD","outputs":[{"internalType":"uint256","name":"","type":"uint256"}],"stateMutability":"view","type":"function"},{"inputs":[],"name":"SUCCESS_FEE_BPS","outputs":[{"internalType":"uint256","name":"","type":"uint256"}],"stateMutability":"view","type":"function"},{"inputs":[],"name":"aTokenAddress","outputs":[{"internalType":"address","name":"","type":"address"}],"stateMutability":"view","type":"function"},{"inputs":[],"name":"aavePool","outputs":[{"internalType":"contract IAavePool","name":"","type":"address"}],"stateMutability":"view","type":"function"},{"inputs":[],"name":"beneficiary","outputs":[{"internalType":"address","name":"","type":"address"}],"stateMutability":"view","type":"function"},{"inputs":[],"name":"claimByBeneficiary","outputs":[],"stateMutability":"nonpayable","type":"function"},{"inputs":[{"internalType":"uint256","name":"amount","type":"uint256"}],"name":"deposit","outputs":[],"stateMutability":"nonpayable","type":"function"},{"inputs":[{"internalType":"uint256","name":"amount","type":"uint256"}],"name":"depositFromFactory","outputs":[],"stateMutability":"nonpayable","type":"function"},{"inputs":[],"name":"factory","outputs":[{"internalType":"address","name":"","type":"address"}],"stateMutability":"view","type":"function"},{"inputs":[{"internalType":"address","name":"_token","type":"address"},{"internalType":"address","name":"_aavePool","type":"address"},{"internalType":"string","name":"_purpose","type":"string"},{"internalType":"uint256","name":"_unlockTimestamp","type":"uint256"},{"internalType":"uint256","name":"_penaltyBps","type":"uint256"},{"internalType":"address","name":"_treasury","type":"address"},{"internalType":"address","name":"_beneficiary","type":"address"},{"internalType":"uint256","name":"_vaultId","type":"uint256"},{"internalType":"address","name":"_owner","type":"address"}],"name":"initialize","outputs":[],"stateMutability":"nonpayable","type":"function"},{"inputs":[],"name":"owner","outputs":[{"internalType":"address","name":"","type":"address"}],"stateMutability":"view","type":"function"},{"inputs":[],"name":"penaltyBps","outputs":[{"internalType":"uint256","name":"","type":"uint256"}],"stateMutability":"view","type":"function"},{"inputs":[],"name":"purpose","outputs":[{"internalType":"string","name":"","type":"string"}],"stateMutability":"view","type":"function"},{"inputs":[],"name":"token","outputs":[{"internalType":"contract IERC20","name":"","type":"address"}],"stateMutability":"view","type":"function"},{"inputs":[],"name":"totalAssets","outputs":[{"internalType":"uint256","name":"","type":"uint256"}],"stateMutability":"view","type":"function"},{"inputs":[],"name":"totalPrincipal","outputs":[{"internalType":"uint256","name":"","type":"uint256"}],"stateMutability":"view","type":"function"},{"inputs":[],"name":"treasury","outputs":[{"internalType":"address","name":"","type":"address"}],"stateMutability":"view","type":"function"},{"inputs":[],"name":"unlockTimestamp","outputs":[{"internalType":"uint256","name":"","type":"uint256"}],"stateMutability":"view","type":"function"},{"inputs":[],"name":"vaultId","outputs":[{"internalType":"uint256","name":"","type":"uint256"}],"stateMutability":"view","type":"function"},{"inputs":[],"name":"withdraw","outputs":[],"stateMutability":"nonpayable","type":"function"}],"evm":{"bytecode":{"linkReferences":{},"object":"608080604052346100bd5760016000557ff0c57e16840df040f15088dc2f81fe391c3923bec73e23a9662efc9c229c6a009081549060ff8260401c166100ae57506001600160401b036002600160401b031982821601610069575b6040516113a990816100c38239f35b6001600160401b031990911681179091556040519081527fc7f505b2f371ae2175ee4913f4499e1f2633a7b5936321eed1cdaeb6115181d290602090a138808061005a565b63f92ee8a960e01b8152600490fd5b600080fdfe608080604052600436101561001357600080fd5b60003560e01c90816301e1d1141461106157508063178ea6ad14610f4957806333194c0a14610f2b57806338af3eed14610f025780633ccfd60b14610c2f5780634b1533b214610c115780635cdd100914610b5957806361d027b314610b3057806370740aab14610a255780638045b3bd14610a085780638da5cb5b146109df578063a03e4bc3146109b6578063aa082a9d14610998578063b6b55f251461088f578063c1a287e214610870578063c45a015514610847578063dcfc0ced1461081e578063e60092d014610147578063ecfad9fd146101295763fc0c546a146100fb57600080fd5b34610124576000366003190112610124576001546040516001600160a01b039091168152602090f35b600080fd5b34610124576000366003190112610124576020600554604051908152f35b3461012457610120366003190112610124576004356001600160a01b038116810361012457602435906001600160a01b03821682036101245760443567ffffffffffffffff8111610124573660238201121561012457806004013567ffffffffffffffff81116104f357604051916101c9601f8301601f19166020018461113b565b81835236602483830101116101245781600092602460209301838601378301015260a4356001600160a01b03811681036101245760c435906001600160a01b03821682036101245761010435926001600160a01b038416840361012457600080516020611354833981519152549467ffffffffffffffff86161580610810575b600167ffffffffffffffff8816149081610806575b1590816107fd575b506107eb57600167ffffffffffffffff198716176000805160206113548339815191525560ff8660401c16156107be575b600180546001600160a01b039283166001600160a01b0319918216811790925560028054938a1693909116831790556040516335ea6a7560e01b81526004810191909152906101e090829060249082905afa9081156107b257600091610652575b506101000151600380546001600160a01b0319166001600160a01b039290921691821790551561061c5780519067ffffffffffffffff82116104f3578190610341600b546110e5565b601f81116105a8575b50602090601f831160011461053057600092610525575b50508160011b916000199060031b1c191617600b555b606435600455608435600555600680546001600160a01b03199081166001600160a01b0393841617909155600780548216938316939093179092556008805483163317905560e435600a556009805490921692811692909217905560015460405163095ea7b360e01b6020808301828152878616602485015260001960448086019190915284529390941695909391929091906000906104168561111f565b84519082895af16000513d82610509575b50501561049a575b50505060ff915060401c161561044157005b68ff0000000000000000196000805160206113548339815191525416600080516020611354833981519152557fc7f505b2f371ae2175ee4913f4499e1f2633a7b5936321eed1cdaeb6115181d2602060405160018152a1005b60405192602084015260018060a01b031660248301526000604483015260448252608082019382851067ffffffffffffffff8611176104f3576104e66104eb9360ff966040528261118e565b61118e565b82808061042f565b634e487b7160e01b600052604160045260246000fd5b90915061051d5750843b15155b8680610427565b600114610516565b015190508780610361565b9250600b600052600080516020611334833981519152906000935b601f198416851061058d576001945083601f19811610610574575b505050811b01600b55610377565b015160001960f88460031b161c19169055878080610566565b8181015183556020948501946001909301929091019061054b565b909150600b600052601f830160051c6000805160206113348339815191520160208410610607575b908392915b601f820160051c6000805160206113348339815191520181106105f8575061034a565b600081558493506001016105d5565b506000805160206113348339815191526105d0565b60405162461bcd60e51b815260206004820152600e60248201526d24b73b30b634b21030aa37b5b2b760911b6044820152606490fd5b90506101e0813d6101e0116107aa575b816106706101e0938361113b565b810103126101245760405190816101e081011067ffffffffffffffff6101e0840111176104f3576101e08201604052805182526106af6020820161115d565b60208301526106c06040820161115d565b60408301526106d16060820161115d565b60608301526106e26080820161115d565b60808301526106f360a0820161115d565b60a083015260c081015164ffffffffff811681036101245760c083015260e081015161ffff811681036101245760e083015261010061073381830161117a565b90830152610744610120820161117a565b61012083015261014061075881830161117a565b9083015261016061076a81830161117a565b9083015261018061077c81830161115d565b908301526101a061078e81830161115d565b908301526107a06101c080920161115d565b90820152876102f8565b3d9150610662565b6040513d6000823e3d90fd5b68ffffffffffffffffff198616680100000000000000011760008051602061135483398151915255610297565b60405163f92ee8a960e01b8152600490fd5b90501588610266565b303b15915061025e565b5060ff8660401c1615610249565b34610124576000366003190112610124576003546040516001600160a01b039091168152602090f35b34610124576000366003190112610124576008546040516001600160a01b039091168152602090f35b346101245760003660031901126101245760206040516301e133808152f35b346101245760203660031901126101245760043560018060a01b036108b9816009541633146111ea565b6108c1611239565b811561096657600154166040516323b872dd60e01b60208201523360248201523060448201528260648201526064815260a081019181831067ffffffffffffffff8411176104f3576109159260405261118e565b61091e8161125c565b61092a81600c5461122c565b600c556040519081524260208201527f73a19dd210f1a7f902193214c0ee91dd35ee5b4d920cba8d519eca65a7b488ca60403392a26001600055005b60405162461bcd60e51b815260206004820152600a6024820152690416d6f756e74203e20360b41b6044820152606490fd5b34610124576000366003190112610124576020600454604051908152f35b34610124576000366003190112610124576002546040516001600160a01b039091168152602090f35b34610124576000366003190112610124576009546040516001600160a01b039091168152602090f35b346101245760003660031901126101245760206040516107d08152f35b3461012457600036600319011261012457604051600b54816000610a48836110e5565b80835292600190818116908115610b0e5750600114610ac1575b50610a6f9250038261113b565b6040519081602080825282519081818401526000935b828510610aa8575050604092506000838284010152601f80199101168101030190f35b8481018201518686016040015293810193859350610a85565b600b600090815291506000805160206113348339815191525b848310610af35750610a6f935050810160200184610a62565b81935090816020925483858901015201910190918492610ada565b905060209250610a6f94915060ff191682840152151560051b82010184610a62565b34610124576000366003190112610124576006546040516001600160a01b039091168152602090f35b3461012457602036600319011261012457600435610b75611239565b6008546001600160a01b039081163303610bdd5760407f73a19dd210f1a7f902193214c0ee91dd35ee5b4d920cba8d519eca65a7b488ca91610bb68461125c565b610bc284600c5461122c565b600c5560095416928151908152426020820152a26001600055005b60405162461bcd60e51b815260206004820152600c60248201526b4f6e6c7920466163746f727960a01b6044820152606490fd5b34610124576000366003190112610124576020600c54604051908152f35b34610124576000366003190112610124576009546001600160a01b0390610c5990821633146111ea565b610c61611239565b8060025416906001916000828454169160405192631a4ca37b60e21b84526004840152811960248401523060448401528260648160209485945af19182156107b257600092610ed3575b508115610ea4576004544210610dc3576000600c54808411610db2575b506107d090818102918183041490151715610d9c577f779c86999fb727ca861d0288aa11ed4104347721c571e4f0da5172afb607d88592610d11612710610d25930480926112eb565b94818692610d83575b5033908754166112f8565b60405183815242828201526060604082015260086060820152674d4154555249545960c01b60808201527f62116a798bb58cc967874bea4d771de2f9aeec6c64189ff2e5a551072f3106f960a03392a26040519283523392a2600055005b610d9690828954168360065416906112f8565b87610d1a565b634e487b7160e01b600052601160045260246000fd5b610dbd9150836112eb565b85610cc8565b6005548083029083820403610d9c57612710610de1910480936112eb565b9282610e8c575b8380610e77575b5050604051838152428282015260606040820152600a606082015269115054931657d156125560b21b60808201527f62116a798bb58cc967874bea4d771de2f9aeec6c64189ff2e5a551072f3106f960a03392a26040519283528201527f1670585e36568ede58d159518ce92cad99f75ad41c7d8281df3dd4eaa0c855d060403392a2600055005b610e859133908754166112f8565b8483610def565b610e9f83828754168360065416906112f8565b610de8565b6064906040519062461bcd60e51b8252600482015260086024820152674e6f2066756e647360c01b6044820152fd5b9080925081813d8311610efb575b610eeb818361113b565b8101031261012457519084610cab565b503d610ee1565b34610124576000366003190112610124576007546040516001600160a01b039091168152602090f35b34610124576000366003190112610124576020600a54604051908152f35b3461012457600036600319011261012457610f62611239565b6008546001600160a01b03908116330361102d5780600254169060208160015416606483600754169160006040519687948593631a4ca37b60e21b855260048501528219602485015260448401525af19182156107b257600092610ff9575b5060207f735e2ef7d759ed5edc5b5cfd70bd63f00eddd61e652119b1825287362957ad59916007541692604051908152a26001600055005b9091506020813d8211611025575b816110146020938361113b565b810103126101245751906020610fc1565b3d9150611007565b60405162461bcd60e51b815260206004820152600c60248201526b4f6e6c7920666163746f727960a01b6044820152606490fd5b34610124576000366003190112610124576003546370a0823160e01b8252306004830152602090829060249082906001600160a01b03165afa80156107b2576000906110b3575b602090604051908152f35b506020813d82116110dd575b816110cc6020938361113b565b8101031261012457602090516110a8565b3d91506110bf565b90600182811c92168015611115575b60208310146110ff57565b634e487b7160e01b600052602260045260246000fd5b91607f16916110f4565b6080810190811067ffffffffffffffff8211176104f357604052565b90601f8019910116810190811067ffffffffffffffff8211176104f357604052565b51906fffffffffffffffffffffffffffffffff8216820361012457565b51906001600160a01b038216820361012457565b906000602091828151910182855af1156107b2576000513d6111e157506001600160a01b0381163b155b6111bf5750565b604051635274afe760e01b81526001600160a01b039091166004820152602490fd5b600114156111b8565b156111f157565b60405162461bcd60e51b81526020600482015260136024820152722737ba103a3432903b30bab63a1037bbb732b960691b6044820152606490fd5b91908201809211610d9c57565b60026000541461124a576002600055565b604051633ee5aeb560e01b8152600490fd5b6002546001546001600160a01b039081169116803b156101245760405192839263617ba03760e01b8452600484015260248301523060448301528160846000938480948160648401525af180156112de576112b5575050565b67ffffffffffffffff82116112ca5750604052565b634e487b7160e01b81526041600452602490fd5b50604051903d90823e3d90fd5b91908203918211610d9c57565b60405163a9059cbb60e01b60208201526001600160a01b039092166024830152604480830193909352918152611331916104e68261111f565b56fe0175b7a638427703f0dbe7bb9bbf987a2551717b34e79f33b5b1008d1fa01db9f0c57e16840df040f15088dc2f81fe391c3923bec73e23a9662efc9c229c6a00a2646970667358221220148a826088aee7aa2eb8ac89492e5d4401e20eaaec4143b2eeb4516b48329c7864736f6c63430008140033","opcodes":"PUSH1 0x80 DUP1 PUSH1 0x40 MSTORE CALLVALUE PUSH2 0xBD JUMPI PUSH1 0x1 PUSH1 0x0 SSTORE PUSH32 0xF0C57E16840DF040F15088DC2F81FE391C3923BEC73E23A9662EFC9C229C6A00 SWAP1 DUP2 SLOAD SWAP1 PUSH1 0xFF DUP3 PUSH1 0x40 SHR AND PUSH2 0xAE JUMPI POP PUSH1 0x1 PUSH1 0x1 PUSH1 0x40 SHL SUB PUSH1 0x2 PUSH1 0x1 PUSH1 0x40 SHL SUB NOT DUP3 DUP3 AND ADD PUSH2 0x69 JUMPI JUMPDEST PUSH1 0x40 MLOAD PUSH2 0x13A9 SWAP1 DUP2 PUSH2 0xC3 DUP3 CODECOPY RETURN JUMPDEST PUSH1 0x1 PUSH1 0x1 PUSH1 0x40 SHL SUB NOT SWAP1 SWAP2 AND DUP2 OR SWAP1 SWAP2 SSTORE PUSH1 0x40 MLOAD SWAP1 DUP2 MSTORE PUSH32 0xC7F505B2F371AE2175EE4913F4499E1F2633A7B5936321EED1CDAEB6115181D2 SWAP1 PUSH1 0x20 SWAP1 LOG1 CODESIZE DUP1 DUP1 PUSH2 0x5A JUMP JUMPDEST PUSH4 0xF92EE8A9 PUSH1 0xE0 SHL DUP2 MSTORE PUSH1 0x4 SWAP1 REVERT JUMPDEST PUSH1 0x0 DUP1 REVERT INVALID PUSH1 0x80 DUP1 PUSH1 0x40 MSTORE PUSH1 0x4 CALLDATASIZE LT ISZERO PUSH2 0x13 JUMPI PUSH1 0x0 DUP1 REVERT JUMPDEST PUSH1 0x0 CALLDATALOAD PUSH1 0xE0 SHR SWAP1 DUP2 PUSH4 0x1E1D114 EQ PUSH2 0x1061 JUMPI POP DUP1 PUSH4 0x178EA6AD EQ PUSH2 0xF49 JUMPI DUP1 PUSH4 0x33194C0A EQ PUSH2 0xF2B JUMPI DUP1 PUSH4 0x38AF3EED EQ PUSH2 0xF02 JUMPI DUP1 PUSH4 0x3CCFD60B EQ PUSH2 0xC2F JUMPI DUP1 PUSH4 0x4B1533B2 EQ PUSH2 0xC11 JUMPI DUP1 PUSH4 0x5CDD1009 EQ PUSH2 0xB59 JUMPI DUP1 PUSH4 0x61D027B3 EQ PUSH2 0xB30 JUMPI DUP1 PUSH4 0x70740AAB EQ PUSH2 0xA25 JUMPI DUP1 PUSH4 0x8045B3BD EQ PUSH2 0xA08 JUMPI DUP1 PUSH4 0x8DA5CB5B EQ PUSH2 0x9DF JUMPI DUP1 PUSH4 0xA03E4BC3 EQ PUSH2 0x9B6 JUMPI DUP1 PUSH4 0xAA082A9D EQ PUSH2 0x998 JUMPI DUP1 PUSH4 0xB6B55F25 EQ PUSH2 0x88F JUMPI DUP1 PUSH4 0xC1A287E2 EQ PUSH2 0x870 JUMPI DUP1 PUSH4 0xC45A0155 EQ PUSH2 0x847 JUMPI DUP1 PUSH4 0xDCFC0CED EQ PUSH2 0x81E JUMPI DUP1 PUSH4 0xE60092D0 EQ PUSH2 0x147 JUMPI DUP1 PUSH4 0xECFAD9FD EQ PUSH2 0x129 JUMPI PUSH4 0xFC0C546A EQ PUSH2 0xFB JUMPI PUSH1 0x0 DUP1 REVERT JUMPDEST CALLVALUE PUSH2 0x124 JUMPI PUSH1 0x0 CALLDATASIZE PUSH1 0x3 NOT ADD SLT PUSH2 0x124 JUMPI PUSH1 0x1 SLOAD PUSH1 0x40 MLOAD PUSH1 0x1 PUSH1 0x1 PUSH1 0xA0 SHL SUB SWAP1 SWAP2 AND DUP2 MSTORE PUSH1 0x20 SWAP1 RETURN JUMPDEST PUSH1 0x0 DUP1 REVERT JUMPDEST CALLVALUE PUSH2 0x124 JUMPI PUSH1 0x0 CALLDATASIZE PUSH1 0x3 NOT ADD SLT PUSH2 0x124 JUMPI PUSH1 0x20 PUSH1 0x5 SLOAD PUSH1 0x40 MLOAD SWAP1 DUP2 MSTORE RETURN JUMPDEST CALLVALUE PUSH2 0x124 JUMPI PUSH2 0x120 CALLDATASIZE PUSH1 0x3 NOT ADD SLT PUSH2 0x124 JUMPI PUSH1 0x4 CALLDATALOAD PUSH1 0x1 PUSH1 0x1 PUSH1 0xA0 SHL SUB DUP2 AND DUP2 SUB PUSH2 0x124 JUMPI PUSH1 0x24 CALLDATALOAD SWAP1 PUSH1 0x1 PUSH1 0x1 PUSH1 0xA0 SHL SUB DUP3 AND DUP3 SUB PUSH2 0x124 JUMPI PUSH1 0x44 CALLDATALOAD PUSH8 0xFFFFFFFFFFFFFFFF DUP2 GT PUSH2 0x124 JUMPI CALLDATASIZE PUSH1 0x23 DUP3 ADD SLT ISZERO PUSH2 0x124 JUMPI DUP1 PUSH1 0x4 ADD CALLDATALOAD PUSH8 0xFFFFFFFFFFFFFFFF DUP2 GT PUSH2 0x4F3 JUMPI PUSH1 0x40 MLOAD SWAP2 PUSH2 0x1C9 PUSH1 0x1F DUP4 ADD PUSH1 0x1F NOT AND PUSH1 0x20 ADD DUP5 PUSH2 0x113B JUMP JUMPDEST DUP2 DUP4 MSTORE CALLDATASIZE PUSH1 0x24 DUP4 DUP4 ADD ADD GT PUSH2 0x124 JUMPI DUP2 PUSH1 0x0 SWAP3 PUSH1 0x24 PUSH1 0x20 SWAP4 ADD DUP4 DUP7 ADD CALLDATACOPY DUP4 ADD ADD MSTORE PUSH1 0xA4 CALLDATALOAD PUSH1 0x1 PUSH1 0x1 PUSH1 0xA0 SHL SUB DUP2 AND DUP2 SUB PUSH2 0x124 JUMPI PUSH1 0xC4 CALLDATALOAD SWAP1 PUSH1 0x1 PUSH1 0x1 PUSH1 0xA0 SHL SUB DUP3 AND DUP3 SUB PUSH2 0x124 JUMPI PUSH2 0x104 CALLDATALOAD SWAP3 PUSH1 0x1 PUSH1 0x1 PUSH1 0xA0 SHL SUB DUP5 AND DUP5 SUB PUSH2 0x124 JUMPI PUSH1 0x0 DUP1 MLOAD PUSH1 0x20 PUSH2 0x1354 DUP4 CODECOPY DUP2 MLOAD SWAP2 MSTORE SLOAD SWAP5 PUSH8 0xFFFFFFFFFFFFFFFF DUP7 AND ISZERO DUP1 PUSH2 0x810 JUMPI JUMPDEST PUSH1 0x1 PUSH8 0xFFFFFFFFFFFFFFFF DUP9 AND EQ SWAP1 DUP2 PUSH2 0x806 JUMPI JUMPDEST ISZERO SWAP1 DUP2 PUSH2 0x7FD JUMPI JUMPDEST POP PUSH2 0x7EB JUMPI PUSH1 0x1 PUSH8 0xFFFFFFFFFFFFFFFF NOT DUP8 AND OR PUSH1 0x0 DUP1 MLOAD PUSH1 0x20 PUSH2 0x1354 DUP4 CODECOPY DUP2 MLOAD SWAP2 MSTORE SSTORE PUSH1 0xFF DUP7 PUSH1 0x40 SHR AND ISZERO PUSH2 0x7BE JUMPI JUMPDEST PUSH1 0x1 DUP1 SLOAD PUSH1 0x1 PUSH1 0x1 PUSH1 0xA0 SHL SUB SWAP3 DUP4 AND PUSH1 0x1 PUSH1 0x1 PUSH1 0xA0 SHL SUB NOT SWAP2 DUP3 AND DUP2 OR SWAP1 SWAP3 SSTORE PUSH1 0x2 DUP1 SLOAD SWAP4 DUP11 AND SWAP4 SWAP1 SWAP2 AND DUP4 OR SWAP1 SSTORE PUSH1 0x40 MLOAD PUSH4 0x35EA6A75 PUSH1 0xE0 SHL DUP2 MSTORE PUSH1 0x4 DUP2 ADD SWAP2 SWAP1 SWAP2 MSTORE SWAP1 PUSH2 0x1E0 SWAP1 DUP3 SWAP1 PUSH1 0x24 SWAP1 DUP3 SWAP1 GAS STATICCALL SWAP1 DUP2 ISZERO PUSH2 0x7B2 JUMPI PUSH1 0x0 SWAP2 PUSH2 0x652 JUMPI JUMPDEST POP PUSH2 0x100 ADD MLOAD PUSH1 0x3 DUP1 SLOAD PUSH1 0x1 PUSH1 0x1 PUSH1 0xA0 SHL SUB NOT AND PUSH1 0x1 PUSH1 0x1 PUSH1 0xA0 SHL SUB SWAP3 SWAP1 SWAP3 AND SWAP2 DUP3 OR SWAP1 SSTORE ISZERO PUSH2 0x61C JUMPI DUP1 MLOAD SWAP1 PUSH8 0xFFFFFFFFFFFFFFFF DUP3 GT PUSH2 0x4F3 JUMPI DUP2 SWAP1 PUSH2 0x341 PUSH1 0xB SLOAD PUSH2 0x10E5 JUMP JUMPDEST PUSH1 0x1F DUP2 GT PUSH2 0x5A8 JUMPI JUMPDEST POP PUSH1 0x20 SWAP1 PUSH1 0x1F DUP4 GT PUSH1 0x1 EQ PUSH2 0x530 JUMPI PUSH1 0x0 SWAP3 PUSH2 0x525 JUMPI JUMPDEST POP POP DUP2 PUSH1 0x1 SHL SWAP2 PUSH1 0x0 NOT SWAP1 PUSH1 0x3 SHL SHR NOT AND OR PUSH1 0xB SSTORE JUMPDEST PUSH1 0x64 CALLDATALOAD PUSH1 0x4 SSTORE PUSH1 0x84 CALLDATALOAD PUSH1 0x5 SSTORE PUSH1 0x6 DUP1 SLOAD PUSH1 0x1 PUSH1 0x1 PUSH1 0xA0 SHL SUB NOT SWAP1 DUP2 AND PUSH1 0x1 PUSH1 0x1 PUSH1 0xA0 SHL SUB SWAP4 DUP5 AND OR SWAP1 SWAP2 SSTORE PUSH1 0x7 DUP1 SLOAD DUP3 AND SWAP4 DUP4 AND SWAP4 SWAP1 SWAP4 OR SWAP1 SWAP3 SSTORE PUSH1 0x8 DUP1 SLOAD DUP4 AND CALLER OR SWAP1 SSTORE PUSH1 0xE4 CALLDATALOAD PUSH1 0xA SSTORE PUSH1 0x9 DUP1 SLOAD SWAP1 SWAP3 AND SWAP3 DUP2 AND SWAP3 SWAP1 SWAP3 OR SWAP1 SSTORE PUSH1 0x1 SLOAD PUSH1 0x40 MLOAD PUSH4 0x95EA7B3 PUSH1 0xE0 SHL PUSH1 0x20 DUP1 DUP4 ADD DUP3 DUP2 MSTORE DUP8 DUP7 AND PUSH1 0x24 DUP6 ADD MSTORE PUSH1 0x0 NOT PUSH1 0x44 DUP1 DUP7 ADD SWAP2 SWAP1 SWAP2 MSTORE DUP5 MSTORE SWAP4 SWAP1 SWAP5 AND SWAP6 SWAP1 SWAP4 SWAP2 SWAP3 SWAP1 SWAP2 SWAP1 PUSH1 0x0 SWAP1 PUSH2 0x416 DUP6 PUSH2 0x111F JUMP JUMPDEST DUP5 MLOAD SWAP1 DUP3 DUP10 GAS CALL PUSH1 0x0 MLOAD RETURNDATASIZE DUP3 PUSH2 0x509 JUMPI JUMPDEST POP POP ISZERO PUSH2 0x49A JUMPI JUMPDEST POP POP POP PUSH1 0xFF SWAP2 POP PUSH1 0x40 SHR AND ISZERO PUSH2 0x441 JUMPI STOP JUMPDEST PUSH9 0xFF0000000000000000 NOT PUSH1 0x0 DUP1 MLOAD PUSH1 0x20 PUSH2 0x1354 DUP4 CODECOPY DUP2 MLOAD SWAP2 MSTORE SLOAD AND PUSH1 0x0 DUP1 MLOAD PUSH1 0x20 PUSH2 0x1354 DUP4 CODECOPY DUP2 MLOAD SWAP2 MSTORE SSTORE PUSH32 0xC7F505B2F371AE2175EE4913F4499E1F2633A7B5936321EED1CDAEB6115181D2 PUSH1 0x20 PUSH1 0x40 MLOAD PUSH1 0x1 DUP2 MSTORE LOG1 STOP JUMPDEST PUSH1 0x40 MLOAD SWAP3 PUSH1 0x20 DUP5 ADD MSTORE PUSH1 0x1 DUP1 PUSH1 0xA0 SHL SUB AND PUSH1 0x24 DUP4 ADD MSTORE PUSH1 0x0 PUSH1 0x44 DUP4 ADD MSTORE PUSH1 0x44 DUP3 MSTORE PUSH1 0x80 DUP3 ADD SWAP4 DUP3 DUP6 LT PUSH8 0xFFFFFFFFFFFFFFFF DUP7 GT OR PUSH2 0x4F3 JUMPI PUSH2 0x4E6 PUSH2 0x4EB SWAP4 PUSH1 0xFF SWAP7 PUSH1 0x40 MSTORE DUP3 PUSH2 0x118E JUMP JUMPDEST PUSH2 0x118E JUMP JUMPDEST DUP3 DUP1 DUP1 PUSH2 0x42F JUMP JUMPDEST PUSH4 0x4E487B71 PUSH1 0xE0 SHL PUSH1 0x0 MSTORE PUSH1 0x41 PUSH1 0x4 MSTORE PUSH1 0x24 PUSH1 0x0 REVERT JUMPDEST SWAP1 SWAP2 POP PUSH2 0x51D JUMPI POP DUP5 EXTCODESIZE ISZERO ISZERO JUMPDEST DUP7 DUP1 PUSH2 0x427 JUMP JUMPDEST PUSH1 0x1 EQ PUSH2 0x516 JUMP JUMPDEST ADD MLOAD SWAP1 POP DUP8 DUP1 PUSH2 0x361 JUMP JUMPDEST SWAP3 POP PUSH1 0xB PUSH1 0x0 MSTORE PUSH1 0x0 DUP1 MLOAD PUSH1 0x20 PUSH2 0x1334 DUP4 CODECOPY DUP2 MLOAD SWAP2 MSTORE SWAP1 PUSH1 0x0 SWAP4 JUMPDEST PUSH1 0x1F NOT DUP5 AND DUP6 LT PUSH2 0x58D JUMPI PUSH1 0x1 SWAP5 POP DUP4 PUSH1 0x1F NOT DUP2 AND LT PUSH2 0x574 JUMPI JUMPDEST POP POP POP DUP2 SHL ADD PUSH1 0xB SSTORE PUSH2 0x377 JUMP JUMPDEST ADD MLOAD PUSH1 0x0 NOT PUSH1 0xF8 DUP5 PUSH1 0x3 SHL AND SHR NOT AND SWAP1 SSTORE DUP8 DUP1 DUP1 PUSH2 0x566 JUMP JUMPDEST DUP2 DUP2 ADD MLOAD DUP4 SSTORE PUSH1 0x20 SWAP5 DUP6 ADD SWAP5 PUSH1 0x1 SWAP1 SWAP4 ADD SWAP3 SWAP1 SWAP2 ADD SWAP1 PUSH2 0x54B JUMP JUMPDEST SWAP1 SWAP2 POP PUSH1 0xB PUSH1 0x0 MSTORE PUSH1 0x1F DUP4 ADD PUSH1 0x5 SHR PUSH1 0x0 DUP1 MLOAD PUSH1 0x20 PUSH2 0x1334 DUP4 CODECOPY DUP2 MLOAD SWAP2 MSTORE ADD PUSH1 0x20 DUP5 LT PUSH2 0x607 JUMPI JUMPDEST SWAP1 DUP4 SWAP3 SWAP2 JUMPDEST PUSH1 0x1F DUP3 ADD PUSH1 0x5 SHR PUSH1 0x0 DUP1 MLOAD PUSH1 0x20 PUSH2 0x1334 DUP4 CODECOPY DUP2 MLOAD SWAP2 MSTORE ADD DUP2 LT PUSH2 0x5F8 JUMPI POP PUSH2 0x34A JUMP JUMPDEST PUSH1 0x0 DUP2 SSTORE DUP5 SWAP4 POP PUSH1 0x1 ADD PUSH2 0x5D5 JUMP JUMPDEST POP PUSH1 0x0 DUP1 MLOAD PUSH1 0x20 PUSH2 0x1334 DUP4 CODECOPY DUP2 MLOAD SWAP2 MSTORE PUSH2 0x5D0 JUMP JUMPDEST PUSH1 0x40 MLOAD PUSH3 0x461BCD PUSH1 0xE5 SHL DUP2 MSTORE PUSH1 0x20 PUSH1 0x4 DUP3 ADD MSTORE PUSH1 0xE PUSH1 0x24 DUP3 ADD MSTORE PUSH14 0x24B73B30B634B21030AA37B5B2B7 PUSH1 0x91 SHL PUSH1 0x44 DUP3 ADD MSTORE PUSH1 0x64 SWAP1 REVERT JUMPDEST SWAP1 POP PUSH2 0x1E0 DUP2 RETURNDATASIZE PUSH2 0x1E0 GT PUSH2 0x7AA JUMPI JUMPDEST DUP2 PUSH2 0x670 PUSH2 0x1E0 SWAP4 DUP4 PUSH2 0x113B JUMP JUMPDEST DUP2 ADD SUB SLT PUSH2 0x124 JUMPI PUSH1 0x40 MLOAD SWAP1 DUP2 PUSH2 0x1E0 DUP2 ADD LT PUSH8 0xFFFFFFFFFFFFFFFF PUSH2 0x1E0 DUP5 ADD GT OR PUSH2 0x4F3 JUMPI PUSH2 0x1E0 DUP3 ADD PUSH1 0x40 MSTORE DUP1 MLOAD DUP3 MSTORE PUSH2 0x6AF PUSH1 0x20 DUP3 ADD PUSH2 0x115D JUMP JUMPDEST PUSH1 0x20 DUP4 ADD MSTORE PUSH2 0x6C0 PUSH1 0x40 DUP3 ADD PUSH2 0x115D JUMP JUMPDEST PUSH1 0x40 DUP4 ADD MSTORE PUSH2 0x6D1 PUSH1 0x60 DUP3 ADD PUSH2 0x115D JUMP JUMPDEST PUSH1 0x60 DUP4 ADD MSTORE PUSH2 0x6E2 PUSH1 0x80 DUP3 ADD PUSH2 0x115D JUMP JUMPDEST PUSH1 0x80 DUP4 ADD MSTORE PUSH2 0x6F3 PUSH1 0xA0 DUP3 ADD PUSH2 0x115D JUMP JUMPDEST PUSH1 0xA0 DUP4 ADD MSTORE PUSH1 0xC0 DUP2 ADD MLOAD PUSH5 0xFFFFFFFFFF DUP2 AND DUP2 SUB PUSH2 0x124 JUMPI PUSH1 0xC0 DUP4 ADD MSTORE PUSH1 0xE0 DUP2 ADD MLOAD PUSH2 0xFFFF DUP2 AND DUP2 SUB PUSH2 0x124 JUMPI PUSH1 0xE0 DUP4 ADD MSTORE PUSH2 0x100 PUSH2 0x733 DUP2 DUP4 ADD PUSH2 0x117A JUMP JUMPDEST SWAP1 DUP4 ADD MSTORE PUSH2 0x744 PUSH2 0x120 DUP3 ADD PUSH2 0x117A JUMP JUMPDEST PUSH2 0x120 DUP4 ADD MSTORE PUSH2 0x140 PUSH2 0x758 DUP2 DUP4 ADD PUSH2 0x117A JUMP JUMPDEST SWAP1 DUP4 ADD MSTORE PUSH2 0x160 PUSH2 0x76A DUP2 DUP4 ADD PUSH2 0x117A JUMP JUMPDEST SWAP1 DUP4 ADD MSTORE PUSH2 0x180 PUSH2 0x77C DUP2 DUP4 ADD PUSH2 0x115D JUMP JUMPDEST SWAP1 DUP4 ADD MSTORE PUSH2 0x1A0 PUSH2 0x78E DUP2 DUP4 ADD PUSH2 0x115D JUMP JUMPDEST SWAP1 DUP4 ADD MSTORE PUSH2 0x7A0 PUSH2 0x1C0 DUP1 SWAP3 ADD PUSH2 0x115D JUMP JUMPDEST SWAP1 DUP3 ADD MSTORE DUP8 PUSH2 0x2F8 JUMP JUMPDEST RETURNDATASIZE SWAP2 POP PUSH2 0x662 JUMP JUMPDEST PUSH1 0x40 MLOAD RETURNDATASIZE PUSH1 0x0 DUP3 RETURNDATACOPY RETURNDATASIZE SWAP1 REVERT JUMPDEST PUSH9 0xFFFFFFFFFFFFFFFFFF NOT DUP7 AND PUSH9 0x10000000000000001 OR PUSH1 0x0 DUP1 MLOAD PUSH1 0x20 PUSH2 0x1354 DUP4 CODECOPY DUP2 MLOAD SWAP2 MSTORE SSTORE PUSH2 0x297 JUMP JUMPDEST PUSH1 0x40 MLOAD PUSH4 0xF92EE8A9 PUSH1 0xE0 SHL DUP2 MSTORE PUSH1 0x4 SWAP1 REVERT JUMPDEST SWAP1 POP ISZERO DUP9 PUSH2 0x266 JUMP JUMPDEST ADDRESS EXTCODESIZE ISZERO SWAP2 POP PUSH2 0x25E JUMP JUMPDEST POP PUSH1 0xFF DUP7 PUSH1 0x40 SHR AND ISZERO PUSH2 0x249 JUMP JUMPDEST CALLVALUE PUSH2 0x124 JUMPI PUSH1 0x0 CALLDATASIZE PUSH1 0x3 NOT ADD SLT PUSH2 0x124 JUMPI PUSH1 0x3 SLOAD PUSH1 0x40 MLOAD PUSH1 0x1 PUSH1 0x1 PUSH1 0xA0 SHL SUB SWAP1 SWAP2 AND DUP2 MSTORE PUSH1 0x20 SWAP1 RETURN JUMPDEST CALLVALUE PUSH2 0x124 JUMPI PUSH1 0x0 CALLDATASIZE PUSH1 0x3 NOT ADD SLT PUSH2 0x124 JUMPI PUSH1 0x8 SLOAD PUSH1 0x40 MLOAD PUSH1 0x1 PUSH1 0x1 PUSH1 0xA0 SHL SUB SWAP1 SWAP2 AND DUP2 MSTORE PUSH1 0x20 SWAP1 RETURN JUMPDEST CALLVALUE PUSH2 0x124 JUMPI PUSH1 0x0 CALLDATASIZE PUSH1 0x3 NOT ADD SLT PUSH2 0x124 JUMPI PUSH1 0x20 PUSH1 0x40 MLOAD PUSH4 0x1E13380 DUP2 MSTORE RETURN JUMPDEST CALLVALUE PUSH2 0x124 JUMPI PUSH1 0x20 CALLDATASIZE PUSH1 0x3 NOT ADD SLT PUSH2 0x124 JUMPI PUSH1 0x4 CALLDATALOAD PUSH1 0x1 DUP1 PUSH1 0xA0 SHL SUB PUSH2 0x8B9 DUP2 PUSH1 0x9 SLOAD AND CALLER EQ PUSH2 0x11EA JUMP JUMPDEST PUSH2 0x8C1 PUSH2 0x1239 JUMP JUMPDEST DUP2 ISZERO PUSH2 0x966 JUMPI PUSH1 0x1 SLOAD AND PUSH1 0x40 MLOAD PUSH4 0x23B872DD PUSH1 0xE0 SHL PUSH1 0x20 DUP3 ADD MSTORE CALLER PUSH1 0x24 DUP3 ADD MSTORE ADDRESS PUSH1 0x44 DUP3 ADD MSTORE DUP3 PUSH1 0x64 DUP3 ADD MSTORE PUSH1 0x64 DUP2 MSTORE PUSH1 0xA0 DUP2 ADD SWAP2 DUP2 DUP4 LT PUSH8 0xFFFFFFFFFFFFFFFF DUP5 GT OR PUSH2 0x4F3 JUMPI PUSH2 0x915 SWAP3 PUSH1 0x40 MSTORE PUSH2 0x118E JUMP JUMPDEST PUSH2 0x91E DUP2 PUSH2 0x125C JUMP JUMPDEST PUSH2 0x92A DUP2 PUSH1 0xC SLOAD PUSH2 0x122C JUMP JUMPDEST PUSH1 0xC SSTORE PUSH1 0x40 MLOAD SWAP1 DUP2 MSTORE TIMESTAMP PUSH1 0x20 DUP3 ADD MSTORE PUSH32 0x73A19DD210F1A7F902193214C0EE91DD35EE5B4D920CBA8D519ECA65A7B488CA PUSH1 0x40 CALLER SWAP3 LOG2 PUSH1 0x1 PUSH1 0x0 SSTORE STOP JUMPDEST PUSH1 0x40 MLOAD PUSH3 0x461BCD PUSH1 0xE5 SHL DUP2 MSTORE PUSH1 0x20 PUSH1 0x4 DUP3 ADD MSTORE PUSH1 0xA PUSH1 0x24 DUP3 ADD MSTORE PUSH10 0x416D6F756E74203E203 PUSH1 0xB4 SHL PUSH1 0x44 DUP3 ADD MSTORE PUSH1 0x64 SWAP1 REVERT JUMPDEST CALLVALUE PUSH2 0x124 JUMPI PUSH1 0x0 CALLDATASIZE PUSH1 0x3 NOT ADD SLT PUSH2 0x124 JUMPI PUSH1 0x20 PUSH1 0x4 SLOAD PUSH1 0x40 MLOAD SWAP1 DUP2 MSTORE RETURN JUMPDEST CALLVALUE PUSH2 0x124 JUMPI PUSH1 0x0 CALLDATASIZE PUSH1 0x3 NOT ADD SLT PUSH2 0x124 JUMPI PUSH1 0x2 SLOAD PUSH1 0x40 MLOAD PUSH1 0x1 PUSH1 0x1 PUSH1 0xA0 SHL SUB SWAP1 SWAP2 AND DUP2 MSTORE PUSH1 0x20 SWAP1 RETURN JUMPDEST CALLVALUE PUSH2 0x124 JUMPI PUSH1 0x0 CALLDATASIZE PUSH1 0x3 NOT ADD SLT PUSH2 0x124 JUMPI PUSH1 0x9 SLOAD PUSH1 0x40 MLOAD PUSH1 0x1 PUSH1 0x1 PUSH1 0xA0 SHL SUB SWAP1 SWAP2 AND DUP2 MSTORE PUSH1 0x20 SWAP1 RETURN JUMPDEST CALLVALUE PUSH2 0x124 JUMPI PUSH1 0x0 CALLDATASIZE PUSH1 0x3 NOT ADD SLT PUSH2 0x124 JUMPI PUSH1 0x20 PUSH1 0x40 MLOAD PUSH2 0x7D0 DUP2 MSTORE RETURN JUMPDEST CALLVALUE PUSH2 0x124 JUMPI PUSH1 0x0 CALLDATASIZE PUSH1 0x3 NOT ADD SLT PUSH2 0x124 JUMPI PUSH1 0x40 MLOAD PUSH1 0xB SLOAD DUP2 PUSH1 0x0 PUSH2 0xA48 DUP4 PUSH2 0x10E5 JUMP JUMPDEST DUP1 DUP4 MSTORE SWAP3 PUSH1 0x1 SWAP1 DUP2 DUP2 AND SWAP1 DUP2 ISZERO PUSH2 0xB0E JUMPI POP PUSH1 0x1 EQ PUSH2 0xAC1 JUMPI JUMPDEST POP PUSH2 0xA6F SWAP3 POP SUB DUP3 PUSH2 0x113B JUMP JUMPDEST PUSH1 0x40 MLOAD SWAP1 DUP2 PUSH1 0x20 DUP1 DUP3 MSTORE DUP3 MLOAD SWAP1 DUP2 DUP2 DUP5 ADD MSTORE PUSH1 0x0 SWAP4 JUMPDEST DUP3 DUP6 LT PUSH2 0xAA8 JUMPI POP POP PUSH1 0x40 SWAP3 POP PUSH1 0x0 DUP4 DUP3 DUP5 ADD ADD MSTORE PUSH1 0x1F DUP1 NOT SWAP2 ADD AND DUP2 ADD SUB ADD SWAP1 RETURN JUMPDEST DUP5 DUP2 ADD DUP3 ADD MLOAD DUP7 DUP7 ADD PUSH1 0x40 ADD MSTORE SWAP4 DUP2 ADD SWAP4 DUP6 SWAP4 POP PUSH2 0xA85 JUMP JUMPDEST PUSH1 0xB PUSH1 0x0 SWAP1 DUP2 MSTORE SWAP2 POP PUSH1 0x0 DUP1 MLOAD PUSH1 0x20 PUSH2 0x1334 DUP4 CODECOPY DUP2 MLOAD SWAP2 MSTORE JUMPDEST DUP5 DUP4 LT PUSH2 0xAF3 JUMPI POP PUSH2 0xA6F SWAP4 POP POP DUP2 ADD PUSH1 0x20 ADD DUP5 PUSH2 0xA62 JUMP JUMPDEST DUP2 SWAP4 POP SWAP1 DUP2 PUSH1 0x20 SWAP3 SLOAD DUP4 DUP6 DUP10 ADD ADD MSTORE ADD SWAP2 ADD SWAP1 SWAP2 DUP5 SWAP3 PUSH2 0xADA JUMP JUMPDEST SWAP1 POP PUSH1 0x20 SWAP3 POP PUSH2 0xA6F SWAP5 SWAP2 POP PUSH1 0xFF NOT AND DUP3 DUP5 ADD MSTORE ISZERO ISZERO PUSH1 0x5 SHL DUP3 ADD ADD DUP5 PUSH2 0xA62 JUMP JUMPDEST CALLVALUE PUSH2 0x124 JUMPI PUSH1 0x0 CALLDATASIZE PUSH1 0x3 NOT ADD SLT PUSH2 0x124 JUMPI PUSH1 0x6 SLOAD PUSH1 0x40 MLOAD PUSH1 0x1 PUSH1 0x1 PUSH1 0xA0 SHL SUB SWAP1 SWAP2 AND DUP2 MSTORE PUSH1 0x20 SWAP1 RETURN JUMPDEST CALLVALUE PUSH2 0x124 JUMPI PUSH1 0x20 CALLDATASIZE PUSH1 0x3 NOT ADD SLT PUSH2 0x124 JUMPI PUSH1 0x4 CALLDATALOAD PUSH2 0xB75 PUSH2 0x1239 JUMP JUMPDEST PUSH1 0x8 SLOAD PUSH1 0x1 PUSH1 0x1 PUSH1 0xA0 SHL SUB SWAP1 DUP2 AND CALLER SUB PUSH2 0xBDD JUMPI PUSH1 0x40 PUSH32 0x73A19DD210F1A7F902193214C0EE91DD35EE5B4D920CBA8D519ECA65A7B488CA SWAP2 PUSH2 0xBB6 DUP5 PUSH2 0x125C JUMP JUMPDEST PUSH2 0xBC2 DUP5 PUSH1 0xC SLOAD PUSH2 0x122C JUMP JUMPDEST PUSH1 0xC SSTORE PUSH1 0x9 SLOAD AND SWAP3 DUP2 MLOAD SWAP1 DUP2 MSTORE TIMESTAMP PUSH1 0x20 DUP3 ADD MSTORE LOG2 PUSH1 0x1 PUSH1 0x0 SSTORE STOP JUMPDEST PUSH1 0x40 MLOAD PUSH3 0x461BCD PUSH1 0xE5 SHL DUP2 MSTORE PUSH1 0x20 PUSH1 0x4 DUP3 ADD MSTORE PUSH1 0xC PUSH1 0x24 DUP3 ADD MSTORE PUSH12 0x4F6E6C7920466163746F7279 PUSH1 0xA0 SHL PUSH1 0x44 DUP3 ADD MSTORE PUSH1 0x64 SWAP1 REVERT JUMPDEST CALLVALUE PUSH2 0x124 JUMPI PUSH1 0x0 CALLDATASIZE PUSH1 0x3 NOT ADD SLT PUSH2 0x124 JUMPI PUSH1 0x20 PUSH1 0xC SLOAD PUSH1 0x40 MLOAD SWAP1 DUP2 MSTORE RETURN JUMPDEST CALLVALUE PUSH2 0x124 JUMPI PUSH1 0x0 CALLDATASIZE PUSH1 0x3 NOT ADD SLT PUSH2 0x124 JUMPI PUSH1 0x9 SLOAD PUSH1 0x1 PUSH1 0x1 PUSH1 0xA0 SHL SUB SWAP1 PUSH2 0xC59 SWAP1 DUP3 AND CALLER EQ PUSH2 0x11EA JUMP JUMPDEST PUSH2 0xC61 PUSH2 0x1239 JUMP JUMPDEST DUP1 PUSH1 0x2 SLOAD AND SWAP1 PUSH1 0x1 SWAP2 PUSH1 0x0 DUP3 DUP5 SLOAD AND SWAP2 PUSH1 0x40 MLOAD SWAP3 PUSH4 0x1A4CA37B PUSH1 0xE2 SHL DUP5 MSTORE PUSH1 0x4 DUP5 ADD MSTORE DUP2 NOT PUSH1 0x24 DUP5 ADD MSTORE ADDRESS PUSH1 0x44 DUP5 ADD MSTORE DUP3 PUSH1 0x64 DUP2 PUSH1 0x20 SWAP5 DUP6 SWAP5 GAS CALL SWAP2 DUP3 ISZERO PUSH2 0x7B2 JUMPI PUSH1 0x0 SWAP3 PUSH2 0xED3 JUMPI JUMPDEST POP DUP2 ISZERO PUSH2 0xEA4 JUMPI PUSH1 0x4 SLOAD TIMESTAMP LT PUSH2 0xDC3 JUMPI PUSH1 0x0 PUSH1 0xC SLOAD DUP1 DUP5 GT PUSH2 0xDB2 JUMPI JUMPDEST POP PUSH2 0x7D0 SWAP1 DUP2 DUP2 MUL SWAP2 DUP2 DUP4 DIV EQ SWAP1 ISZERO OR ISZERO PUSH2 0xD9C JUMPI PUSH32 0x779C86999FB727CA861D0288AA11ED4104347721C571E4F0DA5172AFB607D885 SWAP3 PUSH2 0xD11 PUSH2 0x2710 PUSH2 0xD25 SWAP4 DIV DUP1 SWAP3 PUSH2 0x12EB JUMP JUMPDEST SWAP5 DUP2 DUP7 SWAP3 PUSH2 0xD83 JUMPI JUMPDEST POP CALLER SWAP1 DUP8 SLOAD AND PUSH2 0x12F8 JUMP JUMPDEST PUSH1 0x40 MLOAD DUP4 DUP2 MSTORE TIMESTAMP DUP3 DUP3 ADD MSTORE PUSH1 0x60 PUSH1 0x40 DUP3 ADD MSTORE PUSH1 0x8 PUSH1 0x60 DUP3 ADD MSTORE PUSH8 0x4D41545552495459 PUSH1 0xC0 SHL PUSH1 0x80 DUP3 ADD MSTORE PUSH32 0x62116A798BB58CC967874BEA4D771DE2F9AEEC6C64189FF2E5A551072F3106F9 PUSH1 0xA0 CALLER SWAP3 LOG2 PUSH1 0x40 MLOAD SWAP3 DUP4 MSTORE CALLER SWAP3 LOG2 PUSH1 0x0 SSTORE STOP JUMPDEST PUSH2 0xD96 SWAP1 DUP3 DUP10 SLOAD AND DUP4 PUSH1 0x6 SLOAD AND SWAP1 PUSH2 0x12F8 JUMP JUMPDEST DUP8 PUSH2 0xD1A JUMP JUMPDEST PUSH4 0x4E487B71 PUSH1 0xE0 SHL PUSH1 0x0 MSTORE PUSH1 0x11 PUSH1 0x4 MSTORE PUSH1 0x24 PUSH1 0x0 REVERT JUMPDEST PUSH2 0xDBD SWAP2 POP DUP4 PUSH2 0x12EB JUMP JUMPDEST DUP6 PUSH2 0xCC8 JUMP JUMPDEST PUSH1 0x5 SLOAD DUP1 DUP4 MUL SWAP1 DUP4 DUP3 DIV SUB PUSH2 0xD9C JUMPI PUSH2 0x2710 PUSH2 0xDE1 SWAP2 DIV DUP1 SWAP4 PUSH2 0x12EB JUMP JUMPDEST SWAP3 DUP3 PUSH2 0xE8C JUMPI JUMPDEST DUP4 DUP1 PUSH2 0xE77 JUMPI JUMPDEST POP POP PUSH1 0x40 MLOAD DUP4 DUP2 MSTORE TIMESTAMP DUP3 DUP3 ADD MSTORE PUSH1 0x60 PUSH1 0x40 DUP3 ADD MSTORE PUSH1 0xA PUSH1 0x60 DUP3 ADD MSTORE PUSH10 0x115054931657D1561255 PUSH1 0xB2 SHL PUSH1 0x80 DUP3 ADD MSTORE PUSH32 0x62116A798BB58CC967874BEA4D771DE2F9AEEC6C64189FF2E5A551072F3106F9 PUSH1 0xA0 CALLER SWAP3 LOG2 PUSH1 0x40 MLOAD SWAP3 DUP4 MSTORE DUP3 ADD MSTORE PUSH32 0x1670585E36568EDE58D159518CE92CAD99F75AD41C7D8281DF3DD4EAA0C855D0 PUSH1 0x40 CALLER SWAP3 LOG2 PUSH1 0x0 SSTORE STOP JUMPDEST PUSH2 0xE85 SWAP2 CALLER SWAP1 DUP8 SLOAD AND PUSH2 0x12F8 JUMP JUMPDEST DUP5 DUP4 PUSH2 0xDEF JUMP JUMPDEST PUSH2 0xE9F DUP4 DUP3 DUP8 SLOAD AND DUP4 PUSH1 0x6 SLOAD AND SWAP1 PUSH2 0x12F8 JUMP JUMPDEST PUSH2 0xDE8 JUMP JUMPDEST PUSH1 0x64 SWAP1 PUSH1 0x40 MLOAD SWAP1 PUSH3 0x461BCD PUSH1 0xE5 SHL DUP3 MSTORE PUSH1 0x4 DUP3 ADD MSTORE PUSH1 0x8 PUSH1 0x24 DUP3 ADD MSTORE PUSH8 0x4E6F2066756E6473 PUSH1 0xC0 SHL PUSH1 0x44 DUP3 ADD MSTORE REVERT JUMPDEST SWAP1 DUP1 SWAP3 POP DUP2 DUP2 RETURNDATASIZE DUP4 GT PUSH2 0xEFB JUMPI JUMPDEST PUSH2 0xEEB DUP2 DUP4 PUSH2 0x113B JUMP JUMPDEST DUP2 ADD SUB SLT PUSH2 0x124 JUMPI MLOAD SWAP1 DUP5 PUSH2 0xCAB JUMP JUMPDEST POP RETURNDATASIZE PUSH2 0xEE1 JUMP JUMPDEST CALLVALUE PUSH2 0x124 JUMPI PUSH1 0x0 CALLDATASIZE PUSH1 0x3 NOT ADD SLT PUSH2 0x124 JUMPI PUSH1 0x7 SLOAD PUSH1 0x40 MLOAD PUSH1 0x1 PUSH1 0x1 PUSH1 0xA0 SHL SUB SWAP1 SWAP2 AND DUP2 MSTORE PUSH1 0x20 SWAP1 RETURN JUMPDEST CALLVALUE PUSH2 0x124 JUMPI PUSH1 0x0 CALLDATASIZE PUSH1 0x3 NOT ADD SLT PUSH2 0x124 JUMPI PUSH1 0x20 PUSH1 0xA SLOAD PUSH1 0x40 MLOAD SWAP1 DUP2 MSTORE RETURN JUMPDEST CALLVALUE PUSH2 0x124 JUMPI PUSH1 0x0 CALLDATASIZE PUSH1 0x3 NOT ADD SLT PUSH2 0x124 JUMPI PUSH2 0xF62 PUSH2 0x1239 JUMP JUMPDEST PUSH1 0x8 SLOAD PUSH1 0x1 PUSH1 0x1 PUSH1 0xA0 SHL SUB SWAP1 DUP2 AND CALLER SUB PUSH2 0x102D JUMPI DUP1 PUSH1 0x2 SLOAD AND SWAP1 PUSH1 0x20 DUP2 PUSH1 0x1 SLOAD AND PUSH1 0x64 DUP4 PUSH1 0x7 SLOAD AND SWAP2 PUSH1 0x0 PUSH1 0x40 MLOAD SWAP7 DUP8 SWAP5 DUP6 SWAP4 PUSH4 0x1A4CA37B PUSH1 0xE2 SHL DUP6 MSTORE PUSH1 0x4 DUP6 ADD MSTORE DUP3 NOT PUSH1 0x24 DUP6 ADD MSTORE PUSH1 0x44 DUP5 ADD MSTORE GAS CALL SWAP2 DUP3 ISZERO PUSH2 0x7B2 JUMPI PUSH1 0x0 SWAP3 PUSH2 0xFF9 JUMPI JUMPDEST POP PUSH1 0x20 PUSH32 0x735E2EF7D759ED5EDC5B5CFD70BD63F00EDDD61E652119B1825287362957AD59 SWAP2 PUSH1 0x7 SLOAD AND SWAP3 PUSH1 0x40 MLOAD SWAP1 DUP2 MSTORE LOG2 PUSH1 0x1 PUSH1 0x0 SSTORE STOP JUMPDEST SWAP1 SWAP2 POP PUSH1 0x20 DUP2 RETURNDATASIZE DUP3 GT PUSH2 0x1025 JUMPI JUMPDEST DUP2 PUSH2 0x1014 PUSH1 0x20 SWAP4 DUP4 PUSH2 0x113B JUMP JUMPDEST DUP2 ADD SUB SLT PUSH2 0x124 JUMPI MLOAD SWAP1 PUSH1 0x20 PUSH2 0xFC1 JUMP JUMPDEST RETURNDATASIZE SWAP2 POP PUSH2 0x1007 JUMP JUMPDEST PUSH1 0x40 MLOAD PUSH3 0x461BCD PUSH1 0xE5 SHL DUP2 MSTORE PUSH1 0x20 PUSH1 0x4 DUP3 ADD MSTORE PUSH1 0xC PUSH1 0x24 DUP3 ADD MSTORE PUSH12 0x4F6E6C7920666163746F7279 PUSH1 0xA0 SHL PUSH1 0x44 DUP3 ADD MSTORE PUSH1 0x64 SWAP1 REVERT JUMPDEST CALLVALUE PUSH2 0x124 JUMPI PUSH1 0x0 CALLDATASIZE PUSH1 0x3 NOT ADD SLT PUSH2 0x124 JUMPI PUSH1 0x3 SLOAD PUSH4 0x70A08231 PUSH1 0xE0 SHL DUP3 MSTORE ADDRESS PUSH1 0x4 DUP4 ADD MSTORE PUSH1 0x20 SWAP1 DUP3 SWAP1 PUSH1 0x24 SWAP1 DUP3 SWAP1 PUSH1 0x1 PUSH1 0x1 PUSH1 0xA0 SHL SUB AND GAS STATICCALL DUP1 ISZERO PUSH2 0x7B2 JUMPI PUSH1 0x0 SWAP1 PUSH2 0x10B3 JUMPI JUMPDEST PUSH1 0x20 SWAP1 PUSH1 0x40 MLOAD SWAP1 DUP2 MSTORE RETURN JUMPDEST POP PUSH1 0x20 DUP2 RETURNDATASIZE DUP3 GT PUSH2 0x10DD JUMPI JUMPDEST DUP2 PUSH2 0x10CC PUSH1 0x20 SWAP4 DUP4 PUSH2 0x113B JUMP JUMPDEST DUP2 ADD SUB SLT PUSH2 0x124 JUMPI PUSH1 0x20 SWAP1 MLOAD PUSH2 0x10A8 JUMP JUMPDEST RETURNDATASIZE SWAP2 POP PUSH2 0x10BF JUMP JUMPDEST SWAP1 PUSH1 0x1 DUP3 DUP2 SHR SWAP3 AND DUP1 ISZERO PUSH2 0x1115 JUMPI JUMPDEST PUSH1 0x20 DUP4 LT EQ PUSH2 0x10FF JUMPI JUMP JUMPDEST PUSH4 0x4E487B71 PUSH1 0xE0 SHL PUSH1 0x0 MSTORE PUSH1 0x22 PUSH1 0x4 MSTORE PUSH1 0x24 PUSH1 0x0 REVERT JUMPDEST SWAP2 PUSH1 0x7F AND SWAP2 PUSH2 0x10F4 JUMP JUMPDEST PUSH1 0x80 DUP2 ADD SWAP1 DUP2 LT PUSH8 0xFFFFFFFFFFFFFFFF DUP3 GT OR PUSH2 0x4F3 JUMPI PUSH1 0x40 MSTORE JUMP JUMPDEST SWAP1 PUSH1 0x1F DUP1 NOT SWAP2 ADD AND DUP2 ADD SWAP1 DUP2 LT PUSH8 0xFFFFFFFFFFFFFFFF DUP3 GT OR PUSH2 0x4F3 JUMPI PUSH1 0x40 MSTORE JUMP JUMPDEST MLOAD SWAP1 PUSH16 0xFFFFFFFFFFFFFFFFFFFFFFFFFFFFFFFF DUP3 AND DUP3 SUB PUSH2 0x124 JUMPI JUMP JUMPDEST MLOAD SWAP1 PUSH1 0x1 PUSH1 0x1 PUSH1 0xA0 SHL SUB DUP3 AND DUP3 SUB PUSH2 0x124 JUMPI JUMP JUMPDEST SWAP1 PUSH1 0x0 PUSH1 0x20 SWAP2 DUP3 DUP2 MLOAD SWAP2 ADD DUP3 DUP6 GAS CALL ISZERO PUSH2 0x7B2 JUMPI PUSH1 0x0 MLOAD RETURNDATASIZE PUSH2 0x11E1 JUMPI POP PUSH1 0x1 PUSH1 0x1 PUSH1 0xA0 SHL SUB DUP2 AND EXTCODESIZE ISZERO JUMPDEST PUSH2 0x11BF JUMPI POP JUMP JUMPDEST PUSH1 0x40 MLOAD PUSH4 0x5274AFE7 PUSH1 0xE0 SHL DUP2 MSTORE PUSH1 0x1 PUSH1 0x1 PUSH1 0xA0 SHL SUB SWAP1 SWAP2 AND PUSH1 0x4 DUP3 ADD MSTORE PUSH1 0x24 SWAP1 REVERT JUMPDEST PUSH1 0x1 EQ ISZERO PUSH2 0x11B8 JUMP JUMPDEST ISZERO PUSH2 0x11F1 JUMPI JUMP JUMPDEST PUSH1 0x40 MLOAD PUSH3 0x461BCD PUSH1 0xE5 SHL DUP2 MSTORE PUSH1 0x20 PUSH1 0x4 DUP3 ADD MSTORE PUSH1 0x13 PUSH1 0x24 DUP3 ADD MSTORE PUSH19 0x2737BA103A3432903B30BAB63A1037BBB732B9 PUSH1 0x69 SHL PUSH1 0x44 DUP3 ADD MSTORE PUSH1 0x64 SWAP1 REVERT JUMPDEST SWAP2 SWAP1 DUP3 ADD DUP1 SWAP3 GT PUSH2 0xD9C JUMPI JUMP JUMPDEST PUSH1 0x2 PUSH1 0x0 SLOAD EQ PUSH2 0x124A JUMPI PUSH1 0x2 PUSH1 0x0 SSTORE JUMP JUMPDEST PUSH1 0x40 MLOAD PUSH4 0x3EE5AEB5 PUSH1 0xE0 SHL DUP2 MSTORE PUSH1 0x4 SWAP1 REVERT JUMPDEST PUSH1 0x2 SLOAD PUSH1 0x1 SLOAD PUSH1 0x1 PUSH1 0x1 PUSH1 0xA0 SHL SUB SWAP1 DUP2 AND SWAP2 AND DUP1 EXTCODESIZE ISZERO PUSH2 0x124 JUMPI PUSH1 0x40 MLOAD SWAP3 DUP4 SWAP3 PUSH4 0x617BA037 PUSH1 0xE0 SHL DUP5 MSTORE PUSH1 0x4 DUP5 ADD MSTORE PUSH1 0x24 DUP4 ADD MSTORE ADDRESS PUSH1 0x44 DUP4 ADD MSTORE DUP2 PUSH1 0x84 PUSH1 0x0 SWAP4 DUP5 DUP1 SWAP5 DUP2 PUSH1 0x64 DUP5 ADD MSTORE GAS CALL DUP1 ISZERO PUSH2 0x12DE JUMPI PUSH2 0x12B5 JUMPI POP POP JUMP JUMPDEST PUSH8 0xFFFFFFFFFFFFFFFF DUP3 GT PUSH2 0x12CA JUMPI POP PUSH1 0x40 MSTORE JUMP JUMPDEST PUSH4 0x4E487B71 PUSH1 0xE0 SHL DUP2 MSTORE PUSH1 0x41 PUSH1 0x4 MSTORE PUSH1 0x24 SWAP1 REVERT JUMPDEST POP PUSH1 0x40 MLOAD SWAP1 RETURNDATASIZE SWAP1 DUP3 RETURNDATACOPY RETURNDATASIZE SWAP1 REVERT JUMPDEST SWAP2 SWAP1 DUP3 SUB SWAP2 DUP3 GT PUSH2 0xD9C JUMPI JUMP JUMPDEST PUSH1 0x40 MLOAD PUSH4 0xA9059CBB PUSH1 0xE0 SHL PUSH1 0x20 DUP3 ADD MSTORE PUSH1 0x1 PUSH1 0x1 PUSH1 0xA0 SHL SUB SWAP1 SWAP3 AND PUSH1 0x24 DUP4 ADD MSTORE PUSH1 0x44 DUP1 DUP4 ADD SWAP4 SWAP1 SWAP4 MSTORE SWAP2 DUP2 MSTORE PUSH2 0x1331 SWAP2 PUSH2 0x4E6 DUP3 PUSH2 0x111F JUMP JUMPDEST JUMP INVALID ADD PUSH22 0xB7A638427703F0DBE7BB9BBF987A2551717B34E79F33 0xB5 0xB1 STOP DUP14 0x1F LOG0 SAR 0xB9 CREATE 0xC5 PUSH31 0x16840DF040F15088DC2F81FE391C3923BEC73E23A9662EFC9C229C6A00A264 PUSH10 0x70667358221220148A82 PUSH1 0x88 0xAE 0xE7 0xAA 0x2E 0xB8 0xAC DUP10 0x49 0x2E 0x5D PREVRANDAO ADD 0xE2 0xE 0xAA 0xEC COINBASE NUMBER 0xB2 0xEE 0xB4 MLOAD PUSH12 0x48329C7864736F6C63430008 EQ STOP CALLER "},"methodIdentifiers":{"GRACE_PERIOD()":"c1a287e2","SUCCESS_FEE_BPS()":"8045b3bd","aTokenAddress()":"dcfc0ced","aavePool()":"a03e4bc3","beneficiary()":"38af3eed","claimByBeneficiary()":"178ea6ad","deposit(uint256)":"b6b55f25","depositFromFactory(uint256)":"5cdd1009","factory()":"c45a0155","initialize(address,address,string,uint256,uint256,address,address,uint256,address)":"e60092d0","owner()":"8da5cb5b","penaltyBps()":"ecfad9fd","purpose()":"70740aab","token()":"fc0c546a","totalAssets()":"01e1d114","totalPrincipal()":"4b1533b2","treasury()":"61d027b3","unlockTimestamp()":"aa082a9d","vaultId()":"33194c0a","withdraw()":"3ccfd60b"}}}}}