{
  "_format": "hh-sol-artifact-1",
  "contractName": "PersonalVault",
  "sourceName": "contracts/PersonalVault.sol",
  "abi": [
    {
      "inputs": [],
      "stateMutability": "nonpayable",
      "type": "constructor"
    },
    {
      "inputs": [],
      "name": "InvalidInitialization",
      "type": "error"
    },
    {
      "inputs": [],
      "name": "NotInitializing",
      "type": "error"
    },
    {
      "inputs": [],
      "name": "ReentrancyGuardReentrantCall",
      "type": "error"
    },
    {
      "inputs": [
        {
          "internalType": "address",
          "name": "token",
          "type": "address"
        }
      ],
      "name": "SafeERC20FailedOperation",
      "type": "error"
    },
    {
      "anonymous": false,
      "inputs": [
        {
          "indexed": true,
          "internalType": "address",
          "name": "beneficiary",
          "type": "address"
        },
        {
          "indexed": false,
          "internalType": "uint256",
          "name": "amount",
          "type": "uint256"
        }
      ],
      "name": "BeneficiaryClaimed",
      "type": "event"
    },
    {
      "anonymous": false,
      "inputs": [
        {
          "indexed": true,
          "internalType": "address",
          "name": "user",
          "type": "address"
        },
        {
          "indexed": false,
          "internalType": "uint256",
          "name": "amount",
          "type": "uint256"
        },
        {
          "indexed": false,
          "internalType": "uint256",
          "name": "timestamp",
          "type": "uint256"
        }
      ],
      "name": "Deposited",
      "type": "event"
    },
    {
      "anonymous": false,
      "inputs": [
        {
          "indexed": true,
          "internalType": "address",
          "name": "user",
          "type": "address"
        },
        {
          "indexed": false,
          "internalType": "uint256",
          "name": "amountWithdraw",
          "type": "uint256"
        },
        {
          "indexed": false,
          "internalType": "uint256",
          "name": "penaltyPaid",
          "type": "uint256"
        }
      ],
      "name": "EarlyWithdrawal",
      "type": "event"
    },
    {
      "anonymous": false,
      "inputs": [
        {
          "indexed": true,
          "internalType": "address",
          "name": "user",
          "type": "address"
        },
        {
          "indexed": false,
          "internalType": "uint256",
          "name": "amount",
          "type": "uint256"
        }
      ],
      "name": "FullWithdrawal",
      "type": "event"
    },
    {
      "anonymous": false,
      "inputs": [
        {
          "indexed": false,
          "internalType": "uint64",
          "name": "version",
          "type": "uint64"
        }
      ],
      "name": "Initialized",
      "type": "event"
    },
    {
      "anonymous": false,
      "inputs": [
        {
          "indexed": true,
          "internalType": "address",
          "name": "user",
          "type": "address"
        },
        {
          "indexed": false,
          "internalType": "uint256",
          "name": "amount",
          "type": "uint256"
        },
        {
          "indexed": false,
          "internalType": "uint256",
          "name": "timestamp",
          "type": "uint256"
        },
        {
          "indexed": false,
          "internalType": "string",
          "name": "typeOfWithdrawal",
          "type": "string"
        }
      ],
      "name": "Withdrawn",
      "type": "event"
    },
    {
      "inputs": [],
      "name": "GRACE_PERIOD",
      "outputs": [
        {
          "internalType": "uint256",
          "name": "",
          "type": "uint256"
        }
      ],
      "stateMutability": "view",
      "type": "function"
    },
    {
      "inputs": [],
      "name": "SUCCESS_FEE_BPS",
      "outputs": [
        {
          "internalType": "uint256",
          "name": "",
          "type": "uint256"
        }
      ],
      "stateMutability": "view",
      "type": "function"
    },
    {
      "inputs": [],
      "name": "aTokenAddress",
      "outputs": [
        {
          "internalType": "address",
          "name": "",
          "type": "address"
        }
      ],
      "stateMutability": "view",
      "type": "function"
    },
    {
      "inputs": [],
      "name": "aavePool",
      "outputs": [
        {
          "internalType": "contract IAavePool",
          "name": "",
          "type": "address"
        }
      ],
      "stateMutability": "view",
      "type": "function"
    },
    {
      "inputs": [],
      "name": "beneficiary",
      "outputs": [
        {
          "internalType": "address",
          "name": "",
          "type": "address"
        }
      ],
      "stateMutability": "view",
      "type": "function"
    },
    {
      "inputs": [],
      "name": "claimByBeneficiary",
      "outputs": [],
      "stateMutability": "nonpayable",
      "type": "function"
    },
    {
      "inputs": [
        {
          "internalType": "uint256",
          "name": "amount",
          "type": "uint256"
        }
      ],
      "name": "deposit",
      "outputs": [],
      "stateMutability": "nonpayable",
      "type": "function"
    },
    {
      "inputs": [
        {
          "internalType": "uint256",
          "name": "amount",
          "type": "uint256"
        }
      ],
      "name": "depositFromFactory",
      "outputs": [],
      "stateMutability": "nonpayable",
      "type": "function"
    },
    {
      "inputs": [],
      "name": "factory",
      "outputs": [
        {
          "internalType": "address",
          "name": "",
          "type": "address"
        }
      ],
      "stateMutability": "view",
      "type": "function"
    },
    {
      "inputs": [
        {
          "internalType": "address",
          "name": "_token",
          "type": "address"
        },
        {
          "internalType": "address",
          "name": "_aavePool",
          "type": "address"
        },
        {
          "internalType": "string",
          "name": "_purpose",
          "type": "string"
        },
        {
          "internalType": "uint256",
          "name": "_unlockTimestamp",
          "type": "uint256"
        },
        {
          "internalType": "uint256",
          "name": "_penaltyBps",
          "type": "uint256"
        },
        {
          "internalType": "address",
          "name": "_treasury",
          "type": "address"
        },
        {
          "internalType": "address",
          "name": "_beneficiary",
          "type": "address"
        },
        {
          "internalType": "uint256",
          "name": "_vaultId",
          "type": "uint256"
        },
        {
          "internalType": "address",
          "name": "_owner",
          "type": "address"
        }
      ],
      "name": "initialize",
      "outputs": [],
      "stateMutability": "nonpayable",
      "type": "function"
    },
    {
      "inputs": [],
      "name": "owner",
      "outputs": [
        {
          "internalType": "address",
          "name": "",
          "type": "address"
        }
      ],
      "stateMutability": "view",
      "type": "function"
    },
    {
      "inputs": [],
      "name": "penaltyBps",
      "outputs": [
        {
          "internalType": "uint256",
          "name": "",
          "type": "uint256"
        }
      ],
      "stateMutability": "view",
      "type": "function"
    },
    {
      "inputs": [],
      "name": "purpose",
      "outputs": [
        {
          "internalType": "string",
          "name": "",
          "type": "string"
        }
      ],
      "stateMutability": "view",
      "type": "function"
    },
    {
      "inputs": [],
      "name": "token",
      "outputs": [
        {
          "internalType": "contract IERC20",
          "name": "",
          "type": "address"
        }
      ],
      "stateMutability": "view",
      "type": "function"
    },
    {
      "inputs": [],
      "name": "totalAssets",
      "outputs": [
        {
          "internalType": "uint256",
          "name": "",
          "type": "uint256"
        }
      ],
      "stateMutability": "view",
      "type": "function"
    },
    {
      "inputs": [],
      "name": "totalPrincipal",
      "outputs": [
        {
          "internalType": "uint256",
          "name": "",
          "type": "uint256"
        }
      ],
      "stateMutability": "view",
      "type": "function"
    },
    {
      "inputs": [],
      "name": "treasury",
      "outputs": [
        {
          "internalType": "address",
          "name": "",
          "type": "address"
        }
      ],
      "stateMutability": "view",
      "type": "function"
    },
    {
      "inputs": [],
      "name": "unlockTimestamp",
      "outputs": [
        {
          "internalType": "uint256",
          "name": "",
          "type": "uint256"
        }
      ],
      "stateMutability": "view",
      "type": "function"
    },
    {
      "inputs": [],
      "name": "vaultId",
      "outputs": [
        {
          "internalType": "uint256",
          "name": "",
          "type": "uint256"
        }
      ],
      "stateMutability": "view",
      "type": "function"
    },
    {
      "inputs": [],
      "name": "withdraw",
      "outputs": [],
      "stateMutability": "nonpayable",
      "type": "function"
    }
  ],
  "bytecode": "0x608080604052346100bd5760016000557ff0c57e16840df040f15088dc2f81fe391c3923bec73e23a9662efc9c229c6a009081549060ff8260401c166100ae57506001600160401b036002600160401b031982821601610069575b6040516113a990816100c38239f35b6001600160401b031990911681179091556040519081527fc7f505b2f371ae2175ee4913f4499e1f2633a7b5936321eed1cdaeb6115181d290602090a138808061005a565b63f92ee8a960e01b8152600490fd5b600080fdfe608080604052600436101561001357600080fd5b60003560e01c90816301e1d1141461106157508063178ea6ad14610f4957806333194c0a14610f2b57806338af3eed14610f025780633ccfd60b14610c2f5780634b1533b214610c115780635cdd100914610b5957806361d027b314610b3057806370740aab14610a255780638045b3bd14610a085780638da5cb5b146109df578063a03e4bc3146109b6578063aa082a9d14610998578063b6b55f251461088f578063c1a287e214610870578063c45a015514610847578063dcfc0ced1461081e578063e60092d014610147578063ecfad9fd146101295763fc0c546a146100fb57600080fd5b34610124576000366003190112610124576001546040516001600160a01b039091168152602090f35b600080fd5b34610124576000366003190112610124576020600554604051908152f35b3461012457610120366003190112610124576004356001600160a01b038116810361012457602435906001600160a01b03821682036101245760443567ffffffffffffffff8111610124573660238201121561012457806004013567ffffffffffffffff81116104f357604051916101c9601f8301601f19166020018461113b565b81835236602483830101116101245781600092602460209301838601378301015260a4356001600160a01b03811681036101245760c435906001600160a01b03821682036101245761010435926001600160a01b038416840361012457600080516020611354833981519152549467ffffffffffffffff86161580610810575b600167ffffffffffffffff8816149081610806575b1590816107fd575b506107eb57600167ffffffffffffffff198716176000805160206113548339815191525560ff8660401c16156107be575b600180546001600160a01b039283166001600160a01b0319918216811790925560028054938a1693909116831790556040516335ea6a7560e01b81526004810191909152906101e090829060249082905afa9081156107b257600091610652575b506101000151600380546001600160a01b0319166001600160a01b039290921691821790551561061c5780519067ffffffffffffffff82116104f3578190610341600b546110e5565b601f81116105a8575b50602090601f831160011461053057600092610525575b50508160011b916000199060031b1c191617600b555b606435600455608435600555600680546001600160a01b03199081166001600160a01b0393841617909155600780548216938316939093179092556008805483163317905560e435600a556009805490921692811692909217905560015460405163095ea7b360e01b6020808301828152878616602485015260001960448086019190915284529390941695909391929091906000906104168561111f565b84519082895af16000513d82610509575b50501561049a575b50505060ff915060401c161561044157005b68ff0000000000000000196000805160206113548339815191525416600080516020611354833981519152557fc7f505b2f371ae2175ee4913f4499e1f2633a7b5936321eed1cdaeb6115181d2602060405160018152a1005b60405192602084015260018060a01b031660248301526000604483015260448252608082019382851067ffffffffffffffff8611176104f3576104e66104eb9360ff966040528261118e565b61118e565b82808061042f565b634e487b7160e01b600052604160045260246000fd5b90915061051d5750843b15155b8680610427565b600114610516565b015190508780610361565b9250600b600052600080516020611334833981519152906000935b601f198416851061058d576001945083601f19811610610574575b505050811b01600b55610377565b015160001960f88460031b161c19169055878080610566565b8181015183556020948501946001909301929091019061054b565b909150600b600052601f830160051c6000805160206113348339815191520160208410610607575b908392915b601f820160051c6000805160206113348339815191520181106105f8575061034a565b600081558493506001016105d5565b506000805160206113348339815191526105d0565b60405162461bcd60e51b815260206004820152600e60248201526d24b73b30b634b21030aa37b5b2b760911b6044820152606490fd5b90506101e0813d6101e0116107aa575b816106706101e0938361113b565b810103126101245760405190816101e081011067ffffffffffffffff6101e0840111176104f3576101e08201604052805182526106af6020820161115d565b60208301526106c06040820161115d565b60408301526106d16060820161115d565b60608301526106e26080820161115d565b60808301526106f360a0820161115d565b60a083015260c081015164ffffffffff811681036101245760c083015260e081015161ffff811681036101245760e083015261010061073381830161117a565b90830152610744610120820161117a565b61012083015261014061075881830161117a565b9083015261016061076a81830161117a565b9083015261018061077c81830161115d565b908301526101a061078e81830161115d565b908301526107a06101c080920161115d565b90820152876102f8565b3d9150610662565b6040513d6000823e3d90fd5b68ffffffffffffffffff198616680100000000000000011760008051602061135483398151915255610297565b60405163f92ee8a960e01b8152600490fd5b90501588610266565b303b15915061025e565b5060ff8660401c1615610249565b34610124576000366003190112610124576003546040516001600160a01b039091168152602090f35b34610124576000366003190112610124576008546040516001600160a01b039091168152602090f35b346101245760003660031901126101245760206040516301e133808152f35b346101245760203660031901126101245760043560018060a01b036108b9816009541633146111ea565b6108c1611239565b811561096657600154166040516323b872dd60e01b60208201523360248201523060448201528260648201526064815260a081019181831067ffffffffffffffff8411176104f3576109159260405261118e565b61091e8161125c565b61092a81600c5461122c565b600c556040519081524260208201527f73a19dd210f1a7f902193214c0ee91dd35ee5b4d920cba8d519eca65a7b488ca60403392a26001600055005b60405162461bcd60e51b815260206004820152600a6024820152690416d6f756e74203e20360b41b6044820152606490fd5b34610124576000366003190112610124576020600454604051908152f35b34610124576000366003190112610124576002546040516001600160a01b039091168152602090f35b34610124576000366003190112610124576009546040516001600160a01b039091168152602090f35b346101245760003660031901126101245760206040516107d08152f35b3461012457600036600319011261012457604051600b54816000610a48836110e5565b80835292600190818116908115610b0e5750600114610ac1575b50610a6f9250038261113b565b6040519081602080825282519081818401526000935b828510610aa8575050604092506000838284010152601f80199101168101030190f35b8481018201518686016040015293810193859350610a85565b600b600090815291506000805160206113348339815191525b848310610af35750610a6f935050810160200184610a62565b81935090816020925483858901015201910190918492610ada565b905060209250610a6f94915060ff191682840152151560051b82010184610a62565b34610124576000366003190112610124576006546040516001600160a01b039091168152602090f35b3461012457602036600319011261012457600435610b75611239565b6008546001600160a01b039081163303610bdd5760407f73a19dd210f1a7f902193214c0ee91dd35ee5b4d920cba8d519eca65a7b488ca91610bb68461125c565b610bc284600c5461122c565b600c5560095416928151908152426020820152a26001600055005b60405162461bcd60e51b815260206004820152600c60248201526b4f6e6c7920466163746f727960a01b6044820152606490fd5b34610124576000366003190112610124576020600c54604051908152f35b34610124576000366003190112610124576009546001600160a01b0390610c5990821633146111ea565b610c61611239565b8060025416906001916000828454169160405192631a4ca37b60e21b84526004840152811960248401523060448401528260648160209485945af19182156107b257600092610ed3575b508115610ea4576004544210610dc3576000600c54808411610db2575b506107d090818102918183041490151715610d9c577f779c86999fb727ca861d0288aa11ed4104347721c571e4f0da5172afb607d88592610d11612710610d25930480926112eb565b94818692610d83575b5033908754166112f8565b60405183815242828201526060604082015260086060820152674d4154555249545960c01b60808201527f62116a798bb58cc967874bea4d771de2f9aeec6c64189ff2e5a551072f3106f960a03392a26040519283523392a2600055005b610d9690828954168360065416906112f8565b87610d1a565b634e487b7160e01b600052601160045260246000fd5b610dbd9150836112eb565b85610cc8565b6005548083029083820403610d9c57612710610de1910480936112eb565b9282610e8c575b8380610e77575b5050604051838152428282015260606040820152600a606082015269115054931657d156125560b21b60808201527f62116a798bb58cc967874bea4d771de2f9aeec6c64189ff2e5a551072f3106f960a03392a26040519283528201527f1670585e36568ede58d159518ce92cad99f75ad41c7d8281df3dd4eaa0c855d060403392a2600055005b610e859133908754166112f8565b8483610def565b610e9f83828754168360065416906112f8565b610de8565b6064906040519062461bcd60e51b8252600482015260086024820152674e6f2066756e647360c01b6044820152fd5b9080925081813d8311610efb575b610eeb818361113b565b8101031261012457519084610cab565b503d610ee1565b34610124576000366003190112610124576007546040516001600160a01b039091168152602090f35b34610124576000366003190112610124576020600a54604051908152f35b3461012457600036600319011261012457610f62611239565b6008546001600160a01b03908116330361102d5780600254169060208160015416606483600754169160006040519687948593631a4ca37b60e21b855260048501528219602485015260448401525af19182156107b257600092610ff9575b5060207f735e2ef7d759ed5edc5b5cfd70bd63f00eddd61e652119b1825287362957ad59916007541692604051908152a26001600055005b9091506020813d8211611025575b816110146020938361113b565b810103126101245751906020610fc1565b3d9150611007565b60405162461bcd60e51b815260206004820152600c60248201526b4f6e6c7920666163746f727960a01b6044820152606490fd5b34610124576000366003190112610124576003546370a0823160e01b8252306004830152602090829060249082906001600160a01b03165afa80156107b2576000906110b3575b602090604051908152f35b506020813d82116110dd575b816110cc6020938361113b565b8101031261012457602090516110a8565b3d91506110bf565b90600182811c92168015611115575b60208310146110ff57565b634e487b7160e01b600052602260045260246000fd5b91607f16916110f4565b6080810190811067ffffffffffffffff8211176104f357604052565b90601f8019910116810190811067ffffffffffffffff8211176104f357604052565b51906fffffffffffffffffffffffffffffffff8216820361012457565b51906001600160a01b038216820361012457565b906000602091828151910182855af1156107b2576000513d6111e157506001600160a01b0381163b155b6111bf5750565b604051635274afe760e01b81526001600160a01b039091166004820152602490fd5b600114156111b8565b156111f157565b60405162461bcd60e51b81526020600482015260136024820152722737ba103a3432903b30bab63a1037bbb732b960691b6044820152606490fd5b91908201809211610d9c57565b60026000541461124a576002600055565b604051633ee5aeb560e01b8152600490fd5b6002546001546001600160a01b039081169116803b156101245760405192839263617ba03760e01b8452600484015260248301523060448301528160846000938480948160648401525af180156112de576112b5575050565b67ffffffffffffffff82116112ca5750604052565b634e487b7160e01b81526041600452602490fd5b50604051903d90823e3d90fd5b91908203918211610d9c57565b60405163a9059cbb60e01b60208201526001600160a01b039092166024830152604480830193909352918152611331916104e68261111f565b56fe0175b7a638427703f0dbe7bb9bbf987a2551717b34e79f33b5b1008d1fa01db9f0c57e16840df040f15088dc2f81fe391c3923bec73e23a9662efc9c229c6a00a2646970667358221220148a826088aee7aa2eb8ac89492e5d4401e20eaaec4143b2eeb4516b48329c7864736f6c63430008140033",
  "linkReferences": {},
  "deployedLinkReferences": {}
}