{
  "_format": "hh-sol-artifact-1",
  "contractName": "VaultFactory",
  "sourceName": "contracts/VaultFactory.sol",
  "abi": [
    {
      "inputs": [
        {
          "internalType": "address",
          "name": "_usdcToken",
          "type": "address"
        },
        {
          "internalType": "address",
          "name": "_aavePool",
          "type": "address"
        },
        {
          "internalType": "address",
          "name": "_protocolTreasury",
          "type": "address"
        },
        {
          "internalType": "address",
          "name": "_implementation",
          "type": "address"
        }
      ],
      "stateMutability": "nonpayable",
      "type": "constructor"
    },
    {
      "inputs": [],
      "name": "FailedDeployment",
      "type": "error"
    },
    {
      "inputs": [
        {
          "internalType": "uint256",
          "name": "balance",
          "type": "uint256"
        },
        {
          "internalType": "uint256",
          "name": "needed",
          "type": "uint256"
        }
      ],
      "name": "InsufficientBalance",
      "type": "error"
    },
    {
      "inputs": [
        {
          "internalType": "address",
          "name": "owner",
          "type": "address"
        }
      ],
      "name": "OwnableInvalidOwner",
      "type": "error"
    },
    {
      "inputs": [
        {
          "internalType": "address",
          "name": "account",
          "type": "address"
        }
      ],
      "name": "OwnableUnauthorizedAccount",
      "type": "error"
    },
    {
      "inputs": [
        {
          "internalType": "address",
          "name": "token",
          "type": "address"
        }
      ],
      "name": "SafeERC20FailedOperation",
      "type": "error"
    },
    {
      "anonymous": false,
      "inputs": [
        {
          "indexed": true,
          "internalType": "address",
          "name": "previousOwner",
          "type": "address"
        },
        {
          "indexed": true,
          "internalType": "address",
          "name": "newOwner",
          "type": "address"
        }
      ],
      "name": "OwnershipTransferred",
      "type": "event"
    },
    {
      "anonymous": false,
      "inputs": [
        {
          "indexed": true,
          "internalType": "address",
          "name": "user",
          "type": "address"
        },
        {
          "indexed": false,
          "internalType": "address",
          "name": "vault",
          "type": "address"
        },
        {
          "indexed": false,
          "internalType": "uint256",
          "name": "vaultId",
          "type": "uint256"
        },
        {
          "indexed": false,
          "internalType": "string",
          "name": "purpose",
          "type": "string"
        }
      ],
      "name": "VaultCreated",
      "type": "event"
    },
    {
      "inputs": [],
      "name": "aavePool",
      "outputs": [
        {
          "internalType": "address",
          "name": "",
          "type": "address"
        }
      ],
      "stateMutability": "view",
      "type": "function"
    },
    {
      "inputs": [
        {
          "internalType": "uint256",
          "name": "",
          "type": "uint256"
        }
      ],
      "name": "allVaults",
      "outputs": [
        {
          "internalType": "address",
          "name": "",
          "type": "address"
        }
      ],
      "stateMutability": "view",
      "type": "function"
    },
    {
      "inputs": [
        {
          "internalType": "string",
          "name": "_purpose",
          "type": "string"
        },
        {
          "internalType": "uint256",
          "name": "_unlockTimestamp",
          "type": "uint256"
        },
        {
          "internalType": "uint256",
          "name": "_penaltyBps",
          "type": "uint256"
        },
        {
          "internalType": "uint256",
          "name": "_initialDeposit",
          "type": "uint256"
        },
        {
          "internalType": "address",
          "name": "_beneficiary",
          "type": "address"
        }
      ],
      "name": "createPersonalVault",
      "outputs": [
        {
          "internalType": "address",
          "name": "",
          "type": "address"
        }
      ],
      "stateMutability": "nonpayable",
      "type": "function"
    },
    {
      "inputs": [
        {
          "internalType": "address",
          "name": "_user",
          "type": "address"
        }
      ],
      "name": "getUserVaults",
      "outputs": [
        {
          "internalType": "address[]",
          "name": "",
          "type": "address[]"
        }
      ],
      "stateMutability": "view",
      "type": "function"
    },
    {
      "inputs": [],
      "name": "implementation",
      "outputs": [
        {
          "internalType": "address",
          "name": "",
          "type": "address"
        }
      ],
      "stateMutability": "view",
      "type": "function"
    },
    {
      "inputs": [
        {
          "internalType": "address",
          "name": "",
          "type": "address"
        }
      ],
      "name": "isVault",
      "outputs": [
        {
          "internalType": "bool",
          "name": "",
          "type": "bool"
        }
      ],
      "stateMutability": "view",
      "type": "function"
    },
    {
      "inputs": [],
      "name": "nextVaultId",
      "outputs": [
        {
          "internalType": "uint256",
          "name": "",
          "type": "uint256"
        }
      ],
      "stateMutability": "view",
      "type": "function"
    },
    {
      "inputs": [],
      "name": "owner",
      "outputs": [
        {
          "internalType": "address",
          "name": "",
          "type": "address"
        }
      ],
      "stateMutability": "view",
      "type": "function"
    },
    {
      "inputs": [],
      "name": "protocolTreasury",
      "outputs": [
        {
          "internalType": "address",
          "name": "",
          "type": "address"
        }
      ],
      "stateMutability": "view",
      "type": "function"
    },
    {
      "inputs": [],
      "name": "renounceOwnership",
      "outputs": [],
      "stateMutability": "nonpayable",
      "type": "function"
    },
    {
      "inputs": [
        {
          "internalType": "address",
          "name": "newOwner",
          "type": "address"
        }
      ],
      "name": "transferOwnership",
      "outputs": [],
      "stateMutability": "nonpayable",
      "type": "function"
    },
    {
      "inputs": [
        {
          "internalType": "address",
          "name": "_vault",
          "type": "address"
        }
      ],
      "name": "triggerBeneficiaryClaim",
      "outputs": [],
      "stateMutability": "nonpayable",
      "type": "function"
    },
    {
      "inputs": [],
      "name": "usdcToken",
      "outputs": [
        {
          "internalType": "address",
          "name": "",
          "type": "address"
        }
      ],
      "stateMutability": "view",
      "type": "function"
    },
    {
      "inputs": [
        {
          "internalType": "address",
          "name": "",
          "type": "address"
        },
        {
          "internalType": "uint256",
          "name": "",
          "type": "uint256"
        }
      ],
      "name": "userVaults",
      "outputs": [
        {
          "internalType": "address",
          "name": "",
          "type": "address"
        }
      ],
      "stateMutability": "view",
      "type": "function"
    },
    {
      "inputs": [
        {
          "internalType": "uint256",
          "name": "",
          "type": "uint256"
        }
      ],
      "name": "vaultById",
      "outputs": [
        {
          "internalType": "address",
          "name": "",
          "type": "address"
        }
      ],
      "stateMutability": "view",
      "type": "function"
    }
  ],
  "bytecode": "0x60e0346101b557601f610d3238819003918201601f191683019291906001600160401b038411838510176101ba5781608092849260409687528339810103126101b55761004b816101d0565b610057602083016101d0565b61006e60606100678686016101d0565b94016101d0565b92331561019d57600080546001600160a01b0319808216339081178455885191966001600160a01b03969490938716907f8be0079c531659141344cd1fd0a4f28419497f9722a3daafe3b4186f6b6457e09080a360016002558482161561016c5750838616156101285760805260a0521690600154161760015560c05251610b4d90816101e582396080518181816105720152610984015260a051818181610220015261059b015260c05181818161040101526104e90152f35b865162461bcd60e51b815260206004820152601660248201527f496e76616c696420496d706c656d656e746174696f6e000000000000000000006044820152606490fd5b62461bcd60e51b815260206004820152600c60248201526b496e76616c6964205553444360a01b6044820152606490fd5b8451631e4fbdf760e01b815260006004820152602490fd5b600080fd5b634e487b7160e01b600052604160045260246000fd5b51906001600160a01b03821682036101b55756fe6080604081815260048036101561001557600080fd5b600092833560e01c90816311eac855146109705750806312ac17631461095157838163194f5d9f146108db5750806332f19a5c146108a957806349f411b7146104305780635c60da1b146103ec578063652b9b41146103b0578063715018a614610356578063803db96d1461032d5780638da5cb5b146103055780639094a91e146102ab5780639c841fef1461024f578063a03e4bc31461020b578063e7f3c69c1461015d5763f2fde38b146100ca57600080fd5b34610159576020366003190112610159576100e36109b3565b906100ec610a43565b6001600160a01b03918216928315610143575050600054826bffffffffffffffffffffffff60a01b821617600055167f8be0079c531659141344cd1fd0a4f28419497f9722a3daafe3b4186f6b6457e0600080a380f35b51631e4fbdf760e01b8152908101849052602490fd5b8280fd5b50503461020757602080600319360112610159576001600160a01b0392836101836109b3565b1681526005825282812091835190818185549182815201908195855282852090855b8181106101f157505050826101bb9103836109f3565b8451948186019282875251809352850193925b8281106101db5785850386f35b83518716855293810193928101926001016101ce565b82548a16845292840192600192830192016101a5565b5080fd5b505034610207578160031936011261020757517f00000000000000000000000000000000000000000000000000000000000000006001600160a01b03168152602090f35b5050346102075780600319360112610207576102696109b3565b6001600160a01b0390811683526005602052818320805460243594908510156102a8575060209361029991610a15565b92905490519260031b1c168152f35b80fd5b503461015957602036600319011261015957356006548110156101595760066000527ff652222313e28459528d920b65115c16c04f3efc82aaedc97be59f3f377c0d3f015490516001600160a01b03909116815260209150f35b505034610207578160031936011261020757905490516001600160a01b039091168152602090f35b50503461020757816003193601126102075760015490516001600160a01b039091168152602090f35b83346102a857806003193601126102a85761036f610a43565b600080546001600160a01b0319811682556001600160a01b03167f8be0079c531659141344cd1fd0a4f28419497f9722a3daafe3b4186f6b6457e08280a380f35b50346101595760203660031901126101595760209260ff918391906001600160a01b036103db6109b3565b168252855220541690519015158152f35b505034610207578160031936011261020757517f00000000000000000000000000000000000000000000000000000000000000006001600160a01b03168152602090f35b5090346101595760a03660031901126101595781359167ffffffffffffffff8084116108a557366023850112156108a55783820135948186116108925783519260209661048688601f19601f84011601866109f3565b808552602496368883830101116107f157818492898b930183890137860101526084356001600160a01b03818116979094606435939289900361088d5760025495600019871461087b57600187016002556e5af43d82803e903d91602b57fd5bf37f0000000000000000000000000000000000000000000000000000000000000000763d602d80600a3d3981f3363d3d373d3d3d363d7300000062ffffff8260881c1617885260781b178b52806037600988f016998a1561086b5781600154168b3b156108675790878693928d6105d2838f8f908f8c915198899788968795630e60092d60e41b87528d7f0000000000000000000000000000000000000000000000000000000000000000169e8f908801528d7f000000000000000000000000000000000000000000000000000000000000000016868801526101206044880152610124870190610a6f565b93356064860152604435608486015260a485015260c484015260e48301523361010483015203925af1801561085d57908891610845575b5088905260038c52898720906bffffffffffffffffffffffff60a01b918c838254161790558b8852858d528a8820600160ff1982541617905533885260058d528a8820908154680100000000000000009283821015610831576001820181558e9161067391610a15565b909283549160031b92831b921b19161790556006549081101561080957600181018060065581101561081d578b9060066000527ff652222313e28459528d920b65115c16c04f3efc82aaedc97be59f3f377c0d3f019182541617905584610726575b5050505050507f3df58ad1674826c10252882b795e1ed5dc6f88b11895bf9a30c5d494d940046f90835190858252868201526060848201528061071d33946060830190610a6f565b0390a251908152f35b88516323b872dd60e01b8c82015233848201523060448201526064808201879052815260a0810183811182821017610809578a526107649082610aaf565b885163a9059cbb60e01b8c8201528381018b9052604480820187905281529160808301908111838210176107f557895261079e9190610aaf565b873b156107f1579083918751938492635cdd100960e01b845283015281838a5af180156107e7576107d3575b808080806106d5565b6107dd82916109c9565b6102a857806107ca565b85513d84823e3d90fd5b8380fd5b83604186634e487b7160e01b600052526000fd5b84604187634e487b7160e01b600052526000fd5b84603287634e487b7160e01b600052526000fd5b8760418a634e487b7160e01b600052526000fd5b61084e906109c9565b610859578638610609565b8680fd5b8b513d8a823e3d90fd5b8780fd5b895163b06ebf3d60e01b81528590fd5b634e487b7160e01b8652601184528286fd5b600080fd5b634e487b7160e01b815260418352602490fd5b8480fd5b50346101595760203660031901126101595735825260036020908152918190205490516001600160a01b039091168152f35b8084843461094d57602036600319011261094d576108f76109b3565b6108ff610a43565b6001600160a01b0316803b1561094857839183518095819363178ea6ad60e01b83525af190811561093f5750610933575080f35b61093c906109c9565b80f35b513d84823e3d90fd5b505050fd5b5050fd5b5050346102075781600319360112610207576020906002549051908152f35b8490346102075781600319360112610207577f00000000000000000000000000000000000000000000000000000000000000006001600160a01b03168152602090f35b600435906001600160a01b038216820361088d57565b67ffffffffffffffff81116109dd57604052565b634e487b7160e01b600052604160045260246000fd5b90601f8019910116810190811067ffffffffffffffff8211176109dd57604052565b8054821015610a2d5760005260206000200190600090565b634e487b7160e01b600052603260045260246000fd5b6000546001600160a01b03163303610a5757565b60405163118cdaa760e01b8152336004820152602490fd5b919082519283825260005b848110610a9b575050826000602080949584010152601f8019910116010190565b602081830181015184830182015201610a7a565b906000602091828151910182855af115610b0b576000513d610b0257506001600160a01b0381163b155b610ae05750565b604051635274afe760e01b81526001600160a01b039091166004820152602490fd5b60011415610ad9565b6040513d6000823e3d90fdfea264697066735822122033ee109691a74d6711da4d381ab3b35f61c3408343eb5fca23fa542fd9d290b364736f6c63430008140033",
  "linkReferences": {},
  "deployedLinkReferences": {}
}